:020000020000FC
:1000000000360020691D0000711D0000370D000042
:10001000751D0000771D0000791D00000000000024
:100020000000000000000000000000007B1D000038
:100030007D1D0000000000007F1D0000811D0000EC
:10004000831D0000831D0000831D0000831D000030
:10005000831D0000831D0000831D0000831D000020
:10006000831D0000931A0000831D0000831D000003
:10007000FF0C0000F50C0000831D0000831D000034
:10008000690D0000831D0000831D0000831D00001A
:10009000831D0000831D0000831D0000831D0000E0
:1000A000831D0000831D00007B0700002B0D000056
:1000B000831D0000831D0000831D0000831D0000C0
:1000C000831D0000831D0000831D0000831D0000B0
:1000D000831D0000831D0000831D0000831D0000A0
:1000E000831D0000831D0000831D0000831D000090
:1000F000DFF80CD002F096FC004800479D0C000091
:100100000036002010B5002807DA4A07140EFA4A14
:1001100000F00F031B1FD45403E04A07130EF74AE5
:10012000135410BD2DE9F04704460D46164600272E
:10013000B846A946012001F0F7FF02F00AF8074689
:1001400000BF0EE0002714F8010B49F8040B00BFB4
:1001500001F0FFFF074607F001000028F8D108F181
:100160000108B045EED3002001F0DEFF00BF01F032
:10017000F0FF074607F001000028F8D1BDE8F0873E
:1001800010B5FF220A21DE4802F08EF9DC48006833
:10019000401C98B9DB48DA49086002200871012048
:1001A0004871002088710F20C871002008724872C1
:1001B0000A224FF4F831D248FFF7B4FF10BD10B552
:1001C000002303224FF4E131184602F05BF80921C5
:1001D000CD4801F0DBFD0121002002F07EF8102067
:1001E00000F084FE01F05AFE1A2000F07FFEC7489E
:1001F000007800EBC00101EB0010C54901EB4000A5
:10020000C449086010BD10B51021BF48903001F0FE
:10021000BDFD0421BC48903001F0C3FD10BD10B5F8
:10022000C821C80602F000F8182302220021500756
:1002300001F0E8FF00BF4FF0804002F00DF800F041
:1002400040000028F7D10121880702F008F800BF1C
:100250004FF0804002F000F800F080000028F7D155
:100260000C2000F043FE10BD70B504460D46AA48B0
:10027000007840B92146284601F005FAA6490870E1
:100280000020A6490870A448007820B900BF01F0FA
:1002900039FA0028FBD0A048007830B901F01DFBE6
:1002A0009D49087001209D49087070BD0FB410B5BC
:1002B000C2B045A8019002A8019A449902F0F6FB49
:1002C000C4B2F02C05DD0020019042B010BC5DF8F6
:1002D00014FB601CC1B202A8FFF7C6FF002001900A
:1002E0002046F2E710B58649086801F018F98A49F6
:1002F000087008460078A0B98948016889A0FFF70E
:10030000D5FF8748016887A0FFF7D0FF84480168C0
:1003100084A0FFF7CBFF8248006801F000F97E4916
:10032000087010BD70B5814C20467D4908601EE004
:10033000204601F0F4F8784908700846007818B9AA
:100340007B4801F0DDFB02E07AA002F09FFB7848D9
:1003500090F90000A84204DA754890F900507048FE
:1003600004606D48007810B942F2107004447B4874
:100370008442DDD3FFF7B6FF70BD10B5FFF700FF75
:100380006548007828B95E49087901F03EF862496D
:1003900008706148007818B95949487901F0E9F8BE
:1003A0005D48007830B9564AD179907901F0ADF9BD
:1003B000594908705848007828B95149087A01F01D
:1003C00016F9554908705448007818B94C49487ACC
:1003D00001F0F0F85048007808B9FFF7A3FF10BD0E
:1003E00070B504460D4601F059FD2246294602200B
:1003F00001F07AFD01221146022001F05BFD10217F
:10040000002001F07FFF70BD0FB438B505A8009043
:100410005348009A049902F049FB84B2214650489F
:10042000FFF7DEFF00200090204638BC5DF814FB8B
:1004300010B500243848007860B93848007848B9C9
:1004400001F04BFA3449087001203449087000204B
:100450004449087043480078142805DD01F0E2FBA8
:100460002D490870FFF73EFF2B480078F8B92B485C
:10047000007801281BD111E0601C84B241F658308D
:1004800084420BDD04212048903001F0FBFC35480C
:100490000078401C33490870002010BD01F03DFA7F
:1004A0000028E9D000202F4908701C490870042159
:1004B0001548903001F0E6FC1748007838B91C4B1D
:1004C000294A2A49F02001F063FA134908700421EF
:1004D0000D48903001F0D2FC0F48007848B90F4821
:1004E000007830B901F0F9F90B49087001200B4987
:1004F00008700120D1E7000018ED00E000E400E002
:10050000F626002080520C3530600040100000209C
:10051000002700200C000020000000201800002010
:1005200004000020465245512564000000BC73348D
:10053000020000200A70726F626C656D2064757233
:10054000696E67206672657175656E637920736583
:1005500061726368696E67230000000000E9A435DA
:10056000242B002013000020500000200100002058
:1005700070B5F74800783038C5B2F5484078303863
:10058000F4490870F24880783038C6B2F2480078F2
:10059000F0BB0120F0490870F04890F9000041F2EA
:1005A000D5214843EE49084400F5805080F8D462D4
:1005B000EA4890F9000041F2D5214843E84908444F
:1005C00000F5805090F8D402142801DD002070BDA1
:1005D00000240FE07721E14890F9000041F2D52294
:1005E0005043DF4A1044C4EB041200EB0210417088
:1005F000601CC4B2D94890F9000041F2D5214843AB
:10060000D749084400F5805090F8D402A04200E099
:1006100000E0DFDCD3480078854205D0D14802787D
:100620002946D1A0FFF7F0FECA48007808B900209B
:10063000CDE7C8480078002817DDC64800781428A0
:1006400013DC042D11DC002D0FDDC44890F90000EF
:1006500041F2D5214843C249084400F5805090F842
:10066000D402B04201D10120B1E70020AFE710B5BC
:10067000BA4890F9000041F2D5214843B8490144F5
:10068000B4480078401EC0EB001001EB0014B048E5
:1006900040783038AF490870C2480278AC492046EB
:1006A00001F0F0FEBF480278AC4890F9000041F23A
:1006B000D5214843AA49084400F59650A549097830
:1006C000491E425410BDF0B589B0002500271C22F8
:1006D000B54902A801F0D6FE0020019000241CE0DC
:1006E0009E4890F9000041F2D52148439C490844B6
:1006F000C4EB041100EB0110407846B2772E0AD10A
:1007000004F13100C0B28DF8040001A902A801F083
:10071000DDFE681C45B2601C44B2904890F90000B0
:1007200041F2D52148438E49084400F5805090F8A5
:10073000D402A042D4DCF5B1281DC1B202A8FFF753
:1007400093FD002414E0FFF773FE28B1FFF710FFBC
:1007500060B1FFF78CFF09E0022F06DA281DC1B255
:1007600002A8FFF781FD002400E003E0601C44B212
:10077000AC42E8DB00BF09B0F0BD10B5002108466F
:1007800001F0C0FD00221146022001F093FB8748D2
:100790000078012844D18648007886490978884243
:1007A0003BDA854890F9000041F2D52148436C4975
:1007B00008447F490978C1EB011100EB01107F4922
:1007C0000860084600684078772817D07A4890F982
:1007D000000041F2D52148436149084400F5965094
:1007E00073490978405C7649087008460078C11E54
:1007F00072480068C01CFFF7F3FD05E06C48017803
:10080000491C70A0FFF700FE69480078401C684949
:10081000087000207049088002E0002063490870D9
:1008200010BD10B50BE06C480088401C6A49088078
:10083000084600886949884201DDFFF79EFF5B4852
:1008400000780128EFD000206349088043480078F1
:10085000401C40B24149087057480078401C40B2E3
:1008600055490870084690F90000022801DB002075
:1008700008703A4890F90000022802DB002037494E
:10088000087000204A4908704B4890F9000041F276
:10089000D52148433249084400F5805090F8D402ED
:1008A00044490870012041490870FFF766FF10BDF8
:1008B00010B5FFF7B4FC01204949087000BF484853
:1008C00000780128FBD0012045490870062145A089
:1008D000FFF7CAFC00BF424800780128FBD0012086
:1008E0003F490870062141A0FFF7BEFC00BF3C480D
:1008F00000780128FBD006213EA0FFF7B5FC0120BF
:100900003749087000BF364800780128FBD0002026
:100910003A49087010BD08B539A0006800909DF8EC
:100920000000104909780844C0B28DF80000032285
:100930006946074801F0D6FD08B9012008BD00202E
:10094000FCE71CB52FA103C9CDE900010424A5E0F3
:1009500050000020080000201C000020090000209A
:1009600040010020150000200A736C617665206943
:1009700064206469736D61746368206F72206E6FA8
:1009800074207265636F676E697A65742070616345
:100990006B657420256420696E737465616420251D
:1009A00064230000010000204C36000019000020E4
:1009B0001E000020280000200A0000202400002043
:1009C000210000200A6D697373696E67207061638E
:1009D0006B657420256423002A000020A086010096
:1009E0001B00002053594E433300000053594E431F
:1009F0003200000053594E43310000001A0000201D
:100A00003030300030736C6F74000000FE480078A6
:100A1000401E00EB4000FD49085C012800D142E087
:100A2000F9480078401E00EB4000F8490844B0F84F
:100A30000100401C81B2F4480078401E00EB4000E9
:100A4000F24A1044A0F80110EF480078401E00EB75
:100A5000400011460844B0F80100B0F57A7F12DD7D
:100A60000021E9480078401E00EB40001044A0F847
:100A700001100121E4480078401E00EB40001154B1
:100A8000FFF730FC0FE0E0480078401CDE490870BA
:100A900008460078042801DD01200870201EA4F11A
:100AA0000101CCB2B2D100BFD7480178D8A0FFF77E
:100AB000FDFB1CBD70B5002600241425FFF741FF87
:100AC0008DE0FFF7B5FC002842D0FFF724FF90B17E
:100AD0000121CD480078401E00EB4000CB4A115464
:100AE0000021C9480078401E00EB40001044A0F8E7
:100AF0000110002070BDFFF73BFD98B1FFF7B7FD77
:100B00000121C1480078401E00EB4000BF4A11544B
:100B10000021BD480078401E00EB40001044A0F8C2
:100B2000011001E00020E5E7601CC4B2BA4890F96A
:100B3000000041F2D5214843B849084400F58050EF
:100B400090F8D402B6490978884248DC60B2D1E70F
:100B5000B448007870BB032E04DAFFF7F2FE701C75
:100B6000C6B23CE0A8480078401E00EB4000A74910
:100B70000844B0F80100401C81B2A3480078401E30
:100B800000EB4000A14A1044A0F801109E480078F4
:100B9000401E00EB400011460844B0F801000A284E
:100BA00006DD002198480078401E00EB40001154FB
:100BB00000209FE7984890F9000041F2D521484372
:100BC0009649084400F5805090F8D4026119401A03
:100BD000002802DC684240B28CE7681CC5B270E7AE
:100BE00089480078401C8849087008460078042825
:100BF00001DD0120087000208A4908700021864824
:100C000090F9000041F2D5225043844A104400F587
:100C1000805080F8D412704710B505210D20FFF7E1
:100C200071FA04210C20FFF76DFA03211A20FFF757
:100C300069FA02211020FFF765FA01210920FFF768
:100C400061FA10BD10B54FF40031002001F0C3FB74
:100C500004463CB974A001F019FF0421784801F062
:100C600011F906E077A001F011FF0421744801F0AA
:100C700005F910BD10B57C480478601CC4B2012C85
:100C800000DD0024794A115D04EBC40202EB04127A
:100C9000774B03EB4200FFF7E7FA10BD002001F0AD
:100CA00063FB42F2AA515D4801F005FCFFF787FAA9
:100CB000FFF7C8FFFFF7A7FAFFF75FFBFFF7ACFFEF
:100CC00017E0FFF7F7FE18B1FFF7FDFCFFF7A9FDEE
:100CD00068480078012801D1FFF7EAFD66480078EE
:100CE000012804D1FFF7C6FF002063490870FFF711
:100CF00077FFE6E710B5614801F0AEFA10BD10B518
:100D00004FF0804001F0A8FA01280DD15C4890F91D
:100D100000005B4908705748007828B90023022278
:100D20001946500701F06EFA10BD10B500210846B3
:100D300001F0E8FA10BD00205249086000BF514898
:100D400000680028FBD000BFBFF34F8F4E480068FB
:100D500000F4E0604D490843001D4B490860BFF3B3
:100D60004F8F00BF00BFFEE770B5002001F0BAFA58
:100D7000C5B205F00400042845D1002001F0A9FA0D
:100D8000C4B2002001F09CFA00F00800082812D13B
:100D9000002211462A48903801F016F800BF201EA4
:100DA000A4F10101CCB2FAD10122002124489038EB
:100DB00001F00AF870BD36480068047034480068D5
:100DC000401C33490860294827490978405C401C89
:100DD0002649254A12788854242C7AD100202C499F
:100DE000096808702A490968481F052229A101F0ED
:100DF00079FB38B901201F49087000201B491A4AA5
:100E000012784BE04CE06FE015000020EA2600204D
:100E10002564736C6F7400000900002040010020FD
:100E2000080000201C0000200A696E746567726962
:100E3000747920636865636B206F6B23000000008A
:100E4000C06000400A70726F626C656D20696E2030
:100E5000696E74656772697479206F66206669725D
:100E60006D776172652023001000002011000020C2
:100E7000002700201A0000201D0000200004004070
:100E80001B0000202C0000200CED00E00000FA0503
:100E90000C00002053594E4324000000885402E007
:100EA00001201849087018480078401C164908703D
:100EB00008460078012801DD0020087012480078FB
:100EC00000EBC00101EB0010104901EB400010499C
:100ED000086010480C490978405C322804DB002186
:100EE0000C48094A1278815400BF63E700F01F02E2
:100EF000012191404209920002F1E022C2F8001162
:100F0000704700001D000020100000200027002076
:100F10000C0000201100002070B504460D460A2C7C
:100F20000BD100BF002001F0CBF900F020002028F9
:100F3000F8D10D21002001F0C7F900BF002001F019
:100F4000BFF900F020002028F8D12146002001F050
:100F5000BBF9204670BD01460020704710B504461D
:100F6000002001F0B6F910BD01464FF0FF30704788
:100F700010B504462146002001F0A6F910BD00BFBF
:100F8000FEE700000146002011B14FF480720A60B4
:100F90007047024600204FF040231A7200BF4FF006
:100FA00040231B8803F4E063002BF8D021B14FF0FD
:100FB00040231B790B7002E04FF040231B797047F0
:100FC00038B505460024092000F067FE0820FC49DA
:100FD000087024B90021FF20FFF7DBFF044624B985
:100FE0006946FF20FFF7D5FF04460820F449091F92
:100FF0000870092000F046FE2CB925B19DF80000CC
:1010000000F01F002870204638BDF8B504460025C2
:10101000FF2600BF6846FFF7D3FF0546301EA6F146
:101020000101CEB201D10120F8BD1DB99DF800002B
:10103000A042EFD12846F7E770B504460D460026DA
:10104000092000F02AFE0820DD49087005E014F8A8
:10105000010B0021FFF79DFF0646281EA5F10101A7
:10106000CDB201D0002EF2D00820D549091F08705A
:10107000092000F007FE304670BD38B504460094E4
:1010800001216846FFF7D8FF38BD38B500241CB9E8
:101090006846FFF795FF04462FE09DF8000020B159
:1010A00013280ED0142817D100E020E01CB9B1207D
:1010B000FFF7E3FF04461CB91220FFF7A6FF044622
:1010C00015E01CB9B120FFF7D8FF04461CB9122067
:1010D000FFF79BFF04460AE01CB9B120FFF7CDFFE4
:1010E00004461CB91220FFF790FF044600BF00BF62
:1010F0001CB96846FFF764FF04469DF800001228FB
:1011000001D0002CC9D0204638BD38B5002400BF1E
:10111000092000F0C2FD0820A949087024B9002167
:10112000FF20FFF736FF044624B96946FF20FFF78A
:1011300030FF04460820A249091F0870092000F06A
:10114000A1FD2CB99DF8000000F0200000B101E0E5
:10115000002CDDD000BF204638BD38B50546002440
:10116000009514B9FFF7D1FF044624B90121684660
:10117000FFF762FF0446204638BD2DE9F0410546E1
:101180000F4616460024092000F087FD08208C49F0
:1011900008703CB9C5F3022141F018000021FFF7A7
:1011A000F8FE044624B9E8B20021FFF7F2FE044637
:1011B00005E016F8010B0021FFF7EBFE0446381E90
:1011C000A7F1010701D0002CF3D008207C49091FAA
:1011D0000870092000F056FD2046BDE8F08138B5C2
:1011E00000241CB96846FFF7EBFE04462FE09DF88B
:1011F000000020B113280ED0142817D100E020E001
:101200001CB9B120FFF739FF04461CB91220FFF7C3
:10121000FCFE044615E01CB9B120FFF72EFF044682
:101220001CB91220FFF7F1FE04460AE01CB9B020F9
:10123000FFF723FF04461CB91120FFF7E6FE044622
:1012400000BF00BF1CB96846FFF7BAFE04469DF810
:101250000000112801D0002CC9D0204638BD10B59F
:10126000002414B9FFF7BBFF04462CB9554A4021AE
:101270008800FFF782FF04461CB9BB20FFF76DFF13
:10128000044614B9FFF701FF0446204610BD38B5E7
:1012900000244D48007800B30020009034B96A461D
:1012A000012140F2FA30FFF768FF04460420009065
:1012B00034B96A46012140F22E30FFF75EFF044642
:1012C000002000902CB96A4601210D20FFF755FF40
:1012D000044600203C49087000BF3C48007830B10B
:1012E000FFF7BDFF044614B90020384908702046B6
:1012F00038BD70B50446002501203449087024B17A
:10130000012C0CD0022C1DD113E0402230492D4875
:1013100001F0B8F84FF47A702E49086014E04022CA
:101320002D49284801F0AEF84FF4164029490860CD
:101330000AE040222949234801F0A4F82848254919
:10134000086001E0022500BF00BF284670BD70B5EF
:101350000546002414B9FFF742FF04461CB928468D
:10136000FFF7C7FF044614B9FFF791FF044614B90D
:10137000FFF78BFE0446204670BD10B500241CB953
:10138000A220FFF7EAFE044614B9FFF7BEFE0446AA
:10139000204610BD002000210822094B1A7000E0F1
:1013A000491C104A126812B9B1F57A7FF8DBB1F521
:1013B0007A7F00D101200822014B1B1F1A70704751
:1013C00080600040FA2B0020390000203800002007
:1013D000E53600003C00002065360000A536000020
:1013E000E0930400800E0C4238B50024C820FFF7BB
:1013F00044FE04464FF48050009000BF0098411E08
:1014000000910028FAD1204638BD70B50546002469
:10141000092000F042FC4FF4C250FE490880082029
:10142000FC49603981F864000020FB490860012014
:101430004FF04021888143F2430008824320088214
:101440000820F4491C31087014B9FFF7CDFF044699
:101450000B20F24908808815F049083108800920DE
:1014600001218140EE4A430942F8231000BF0021C8
:10147000002807DA4A07160EEA4A00F00F031B1F7E
:10148000D65403E04A07130EE74A135400BF09205D
:1014900000F0F8FB14B9FFF77DFF044614B9FFF71D
:1014A0006CFF044614B9FFF79AFE04461CB928469F
:1014B000FFF71FFF044614B9FFF7E9FE044614B90D
:1014C000FFF7E3FD0446204670BD10B50024092057
:1014D00000F0E3FB4FF4C250CE4908800820CD490C
:1014E000603981F864000120CB4908604FF0402149
:1014F000888143F243000882432008820820C549BE
:101500001C310870C820FFF7B8FD0446204610BD06
:1015100010B50024FFF7B9FD0446204610BD2DE9A3
:10152000F04781464FF0000A0120C0490870484644
:1015300001F057F80746BE4ABE4B00F0E0FF0546F3
:1015400001F05CF80446BC494C72200A8872200CF9
:10155000C872BA48814504D3072048761620087619
:1015600004E00320B4494876082008765046BDE8D8
:10157000F08730B502460020AF4C637D12B1012ADE
:1015800004D101E0002103E0082101E0022000BFB6
:1015900000BF70B9A84C647D24F0380444EA01030C
:1015A000A54C647D9C4204D00124A04D2C70A24C1B
:1015B000637530BD10B5024600209F4B197F12B1F4
:1015C000012A06D102E021F0400104E041F040018F
:1015D00001E0022000BF00BF40B9974B1B7F8B4248
:1015E00004D00123914C2370934B197710BD10B593
:1015F00002460020904B197F12B1012A06D102E069
:1016000021F0080104E041F0080101E0022000BFE0
:1016100000BF40B9884B1B7F8B4204D00123834C11
:101620002370854B197710BD70B505460E46002412
:10163000002083490870F02D00DD042414B9FFF761
:1016400024FD04462CB9324629461020FFF795FDAB
:1016500004464CB9784880F8275090F8260040F0AE
:101660004000754981F8260014B9FFF710FE0446C2
:1016700014B9FFF70AFD04461CB9B520FFF76DFD4C
:101680000446204670BD73B50D46002400206C4909
:1016900008709DF80000401CC0B200909DF800004A
:1016A000F02800DD042414B9FFF7EFFC04462CB940
:1016B0006A4601211020FFF760FD04463CB99DF801
:1016C0000000411E2A461120FFF757FD044654B979
:1016D000F020594981F82700084690F8260020F0AC
:1016E000400081F8260014B9FFF7D1FD044614B973
:1016F000FFF7CBFC04461CB9B520FFF72EFD0446CE
:1017000020467CBD4E48007870472DE9F0410446E4
:101710000A460020002114B1012C05D102E041F05D
:10172000800103E000BF01E0022000BF00BF0028ED
:1017300046D1102A41D2DFE802F008090A0B0C0D4D
:101740000E0F101112131415161700BF00BF00BFA3
:1017500000BF00BF00BF00BF00BF00BF00BF00BF91
:1017600000BF00BF00BF00BF41EAC20C0CF0FF0188
:101770004FF0030C0CEB8207DFF8C8C0DCF800C0A8
:101780004FF06408BCFBF8F840F6C41C07FB0CFCE7
:10179000BCFBF8F601231D0207E05B1C4FF4007C44
:1017A0004CFA03F5072B00D301E0B542F5D800BF92
:1017B00003F0FF0C4CEA010101E0022000BF00BF72
:1017C00078B9DFF874C09CF814C08C4509D04FF08C
:1017D000010CDFF8588088F800C0DFF85CC08CF896
:1017E0001410BDE8F08138B500240320009014B92E
:1017F000FFF74DFD044601201349087014B9FFF7A7
:1018000044FC04462CB96A4601210D20FFF7B5FCC3
:1018100004461BE060600040100D0C42282400408C
:1018200080E200E018ED00E000E400E03800002075
:10183000AFC0EE131DA6643FFA2B00208013613366
:10184000400000203C000020390000201CB9B520D9
:10185000FFF783FC0446204638BD38B5002402203B
:10186000009014B9FFF713FD044614B9FFF70DFCFF
:1018700004460120FA4908702CB96A4601210D205E
:10188000FFF77BFC04461CB9B520FFF766FC044655
:10189000204638BD70B5054600240020F149087087
:1018A000F02D00DD04244CB9EF4880F8275090F863
:1018B000260040F04000EC4981F8260014B9FFF7FB
:1018C000E6FC044614B9FFF7E0FB04461CB9B2205D
:1018D000FFF743FC0446204670BD10B500240020ED
:1018E000E049087054B9F020DF4981F82700084624
:1018F00090F8260020F0400081F8260014B9FFF788
:10190000C6FC044614B9FFF7C0FB04461CB9B2205C
:10191000FFF723FC0446204610BDD24800787047EC
:101920002DE9F04105460E4617460024092000F037
:10193000B4F90820CD4908703CB9C5F3022141F043
:1019400038000021FFF725FB044624B9E8B2002146
:10195000FFF71FFB044624B90021FF20FFF719FB06
:10196000044605E039467F1CFF20FFF712FB0446C2
:10197000301EA6F1010601D0002CF3D00820BB498F
:10198000091F0870092000F07DF92046BDE8F081AC
:101990002DE9F84305460C4690461E460027FFF702
:1019A000BCFF002847D0B04890F8260000F0400067
:1019B000B0B11CB1AC4890F827002070AA4890F84C
:1019C000270000909DF80000A84200DD009527BB8D
:1019D00042469DF800101020FFF7A2FF07461CE0CA
:1019E0002FB96A4601211020FFF79AFF07469DF89C
:1019F0000000401EC0B2009014B19DF8000020709D
:101A00009DF80000A84200DD009537B942469DF8D8
:101A100000101120FFF784FF07465EB137B9324648
:101A2000012140F21230FFF77BFF074630786B3818
:101A300040B2307002E00CB1002020703846BDE8A2
:101A4000F88338B5002440F2E1708949088014B960
:101A5000FFF71DFC0446012081490870A02000907A
:101A600034B96A46012140F2FA30FFF786FB04469A
:101A70000020009034B96A46012140F22E30FFF771
:101A80007CFB04461CB9B220FFF767FB04462046E6
:101A900038BD1CB5002434B901AA012140F236300A
:101AA000FFF73EFF044634B96A46012140F2373061
:101AB000FFF736FF04469DF8040000F0100010B157
:101AC00001206C4908709DF8040000F0040010B17A
:101AD00001206449087034B901AA012140F236306E
:101AE000FFF74BFB044634B96A46012140F2373018
:101AF000FFF743FB04464FF480705F4908801CBD2C
:101B000070B50546002414B9FFF7C1FB044614B9AB
:101B1000FFF7BBFA04461CB9BC20FFF71EFB0446C6
:101B200014B9FFF72AFC04465DB134B92A460121F5
:101B300040F21230FFF7F4FE044628786B3840B2CA
:101B40002870204670BD2DE9F8430446002646481B
:101B5000007D00904448007D00F0800010B180209E
:101B6000009001E000200090002E45D1102C40D2C2
:101B7000DFE804F008090A0B0C0D0E0F1011121308
:101B80001415161700BF00BF00BF00BF00BF00BF85
:101B900000BF00BF00BF00BF00BF00BF00BF00BF4D
:101BA00000BF9DF8000040EAC400C0B200900320CE
:101BB00000EB8409314800686421B0FBF1F140F684
:101BC000C41009FB00F0B0FBF1F801252F0207E07B
:101BD0006D1C4FF4007040FA05F7072D00D301E0AB
:101BE0004745F5D800BFE8B29DF8001008430090C3
:101BF00001E0022600BF00BF8EB91B48007D9DF8A2
:101C0000001088420BD036B96A46012140F20730F5
:101C1000FFF7B3FA06469DF80000134908753046F1
:101C2000BDE8F88370B5002400250220FFF7EDFB26
:101C3000C820FFF722FA0446FFF7D6FB08200B491D
:101C4000087000BF0E4800680028FBD01CB91120A6
:101C5000FFF7DBF904460CB9FFF757FA70BD000037
:101C60003900002041000020FA2B00208060004055
:101C70002488004040000020302400403C00002028
:101C8000800E0C4200F01F02012191404209920097
:101C900002F1E022C2F80011704700F01F0201219A
:101CA0009140024A430942F82310704780E100E066
:101CB0002748008800F0180030B1082808D0102804
:101CC0000BD0182813D10DE02248234908600EE0FC
:101CD0004FF400402049086009E04FF400401E49DD
:101CE000086004E01D4800681B49086000BF00BF91
:101CF0001748008800F0070101208840164909684C
:101D0000B1FBF0F016490860704700B5002010499B
:101D1000088014490870FFF7CBFF00BD0F49086029
:101D200070470E480068704700B5024672B6084812
:101D3000008820F007000649088008460088104304
:101D4000088062B6FFF7B4FF00BD05480068704721
:101D5000002000400024F400440000204C0000203B
:101D600048000020102400400648804706480047ED
:101D7000FEE7FEE7FEE7FEE7FEE7FEE7FEE7FEE73B
:101D8000FEE7FEE70B1D0000F10000000246118097
:101D90000120704710B5044621712272237301207F
:101DA00010BD0246117101207047024611720120D8
:101DB000704702461173012070470146FF200873E7
:101DC000087108760120704730B5034614461A881A
:101DD0004D000320A8404FF6FF75281A0240480026
:101DE00004FA00F0104482B21A80012030BD10B510
:101DF000034614461A7901208840C0F1FF000240D2
:101E000004FA01F0104482B21A71012010BD10B51D
:101E1000034614461A7A01208840C0F1FF000240B0
:101E200004FA01F0104482B21A72012010BD10B5FC
:101E3000034614461A7B01208840C0F1FF0002408F
:101E400004FA01F0104482B21A73012010BD024658
:101E50000B460120984081B2107B08431073107923
:101E600008431071107E0843107601207047014628
:101E7000087D704702461176107E70470246117742
:101E8000107F7047024682F8201092F820007047B9
:101E9000024682F8241092F82400704710B54FF4DF
:101EA00000715E4800F007FB5C485D4988600120D6
:101EB000486010BD10B5034651B101209840584C00
:101EC000606201209840A06201209840A06309E070
:101ED00001209840524C206201209840E06201208D
:101EE0009840E063012010BDFFB503460E2B71D270
:101EF000DFE803F007121E29343F4B5788888863B8
:101F0000717C5018401E009046480190481E464C77
:101F100004EB0010029076E04248001F0090501839
:101F2000401E0190481E414C04EB001002906AE0F4
:101F30005018401E00903E480190481E3A4C04EB59
:101F4000001002905FE03A4800905018401E019047
:101F5000481E364C04EB0010029054E05018401E0E
:101F6000009034480190481E2F4C04EB0010029062
:101F700049E03048001F00905018401E0190481E54
:101F80002A4C04EB001002903DE05018401E0090D7
:101F9000284828380190481E234C04EB001002907A
:101FA00031E024482C3800905018401E0190481E03
:101FB0001E4C04EB0010029025E01F480090481EC4
:101FC000022404FB00200190481E1C4C04EB00106E
:101FD000029018E016E05018401E0090184801903A
:101FE000481E114C04EB001002900CE01448001F36
:101FF00000905018401E0190481E0C4C04EB00103D
:10200000029000E000BF00BF044800EB03109DE811
:10201000F000F0C0012004B0F0BD0000002E002050
:102020000000014008440040010000C00100000C15
:1020300000500040343000400C0005400100005DBD
:10204000084000406D480088012801D100207047F9
:102050004FF256406949203108804FF22310088022
:1020600003206649083108800120F0E701466348F3
:102070000088012801D1002070474FF256405F4A86
:10208000203210804FF2231010805C4A10321180F1
:10209000080C121D10800120584A0832108000BF21
:1020A000EAE701464FF25640544A203210804FF280
:1020B0002310108021F00040514A10600120704729
:1020C00001464FF256404D4A203210804FF2231005
:1020D00010804A4A28321180080C121D10800120FD
:1020E000704701464FF25640444A203210804FF26A
:1020F0002310108001F00100404A38321080002087
:102100003E4A2032108010800120704701464FF275
:1021100056403A4A203210804FF22310108038483F
:102120000C38016001207047014641B13348001D61
:10213000008840F00400314A121D108007E02F484B
:10214000001D008800F0FB002C4A121D10800120A9
:1021500070472A480088704702460B462748008887
:10216000012801D1002070474FF256402349203109
:1021700008804FF223100880214908390A60081DA1
:1021800003600120EFE710B503461C4C7834238030
:10219000241D2180241D2280012010BD17494831B3
:1021A0000888091D098840EA014070470246134823
:1021B0000088012801D100207047104B10331A808D
:1021C000100C1B1D18801B1D1980080C1B1D18806E
:1021D0004FF256401B1D18804FF22310188002202A
:1021E000064B083318800120E6E70449303108889F
:1021F000091D098840EA014070470000002800409E
:10220000F8FF010030B504460D46A08B00F04000F9
:1022100008B1002030BD208900F4706129431143CA
:10222000194321810120F5E7024611800120704702
:102230000146888870470146088A70470246908B9D
:1022400000F0400008B100207047108920F470634E
:102250000B4313810120F7E70146888B7047024644
:102260009181012070470146B1F1804F02D10348AE
:102270000068704702480068FBE7000098030042CE
:102280009883004270B505462D4890FBF1F42D4E21
:102290003485C00290FBF4F090FBF1F0A0F50060F3
:1022A00080B240F40840B0840020307103F07C001C
:1022B00002F003063043234E30733046007D70BD7C
:1022C00001462048007D704702461E4B19700120D0
:1022D000704701461B48007870470246194B197138
:1022E0000120704701461748007A704710B5034631
:1022F0000AB1144C21741348007E10BD01461148E8
:10230000007E704710B503460E48007920F0300279
:102310000A430C4C2271012010BD024631B9094814
:10232000007B00F03F00074B187305E00548007B79
:1023300040F04000034B18730248007D70470000D6
:1023400020A107000050004030B503460C46164857
:10235000008800F0200141F040011943214311435E
:10236000114D2980012030BD014619B900200F4AC6
:10237000106002E001200D4A106001207047014604
:10238000094A083A1180012070470748001F008859
:10239000704705481030008870470146024A121DF8
:1023A00011800120704700008825004014B10442CC
:1023B00030B50246002000230AE002F0010424B1F7
:1023C0004C1EE51A0124AC40204352085C1CE3B2C9
:1023D0008B42F2DB30BD30B502460B464FF6FF7044
:1023E000002116E0555C80EA052008240EE000F488
:1023F00000452DB141F2210585EA4005A8B203E070
:102400004FF6FF7505EA4000651EECB2002CEEDCCD
:10241000491C9942E6DB30BD00211AE04FF6FF73FC
:1024200003EA012008220EE000F400432BB141F240
:10243000210383EA400398B203E04FF6FF7303EAF7
:102440004000531EDAB2002AEEDC0D4B23F81100D7
:10245000491CFF29E2DD704730B502460B464FF6B6
:10246000FF70002109E0555C85EA2024044D35F811
:10247000145085EA0025A8B2491C9942F3DB30BD0F
:102480000030002040EA01039B0703D009E008C99F
:10249000121F08C0042AFAD203E011F8013B00F829
:1024A000013B521EF9D27047D2B201E000F8012B75
:1024B000491EFBD270470022F6E710B513460A46C4
:1024C00004461946FFF7F0FF204610BD421E12F8E1
:1024D000013F002BFBD111F8013B02F8013B002B1F
:1024E000F9D1704730B504460020034600E05B1C7C
:1024F000934203D2E05CCD5C401BF8D030BD2DE9A7
:10250000FE4F81EA030404F0004421F000410094EE
:102510004FF0000B23F0004350EA01045ED052EA72
:1025200003045BD0C3F30A54C1F30A552C44A4F24C
:10253000F3340194A0FB0254C1F3130141F4801160
:10254000C3F3130343F4801301FB024400FB034E67
:10255000840A970A44EA815447EA8357A4FB076830
:1025600002958D0A05FB07854FEA932C04FB0C545A
:102570002705029D4FEA065847EA1637B5EB0805CE
:102580006EEB070C870E920E47EA811742EA831220
:10259000A7FB0201B6EB0B0164EB00042B0D43EA31
:1025A0000C335E1844EB1C50DA465146E7FB02013F
:1025B000C5F313044FEA0B3343EA14534FEA0432D2
:1025C000019C43EA0603A4F10C040294009CCDE9AB
:1025D00000B400F092F803B0BDE8F08F002001468F
:1025E000F9E70EB540F2334102910021CDE9001127
:1025F0000A460B4600F081F803B000BDC1F30A5251
:1026000010B5C1F3130140F2FF3341F480119A4237
:1026100001DA002010BD40F233439A42A2F2334265
:1026200003DC524200F04AF810BD904010BD30B5B6
:102630000B46014600202022012409E021FA02F580
:102640009D4205D303FA02F5491B04FA02F528441A
:10265000151EA2F10102F1DC30BD2DE9F05F054647
:10266000002092469B4688460646814640241BE051
:10267000284641464746224600F020F853465A462F
:10268000C01A914110D311461846224600F0DCF9D9
:102690002D1A67EB01084F4622460120002100F069
:1026A000D3F917EB00094E41201EA4F10104DFDC31
:1026B000484631462A464346BDE8F09F202A04DBBF
:1026C000203A21FA02F00021704721FA02F3D040AB
:1026D000C2F12002914008431946704710B5141EFC
:1026E00073F1000408DA401C41F1000192185B41CB
:1026F0001A4301D120F0010010BD2DE9F04D9246A2
:102700009B4611B1B1FA81F202E0B0FA80F22032B8
:10271000904600F099F904460F4640EA0A0041EA63
:102720000B0153465A46084313D0114653EA0100A1
:1027300019D0C8F140025046FFF7C0FF05460E46CB
:1027400050465946424600F07FF9084305D0012023
:1027500004E020463946BDE8F08D0020054346EAF6
:10276000E0762C4337430A986305E40AA0EB08009F
:102770000022FD0A44EA47540A3002D500200146EF
:10278000E9E7010510196941DDE9084500196941CA
:10279000BDE8F04DA2E72DE9FE4F804681EA030037
:1027A000C00F0C46009021F0004123F00045B8EB2B
:1027B0000200A94105D24046214690461C460B46E0
:1027C000024623F00040104347D0270DC7F30A000C
:1027D000C3F30A510290401A019040286BDAC3F308
:1027E000130040F4801B0098924620B10023D2EBE6
:1027F000030A63EB0B0B01985946C0F140025046A7
:1028000000F022F906460D4650465946019A00F05E
:102810002AF910EB08006141002487EA115284EA8A
:10282000E7731A4340D0009A62B3019A012A4FEA33
:10283000075215DC001B61EB02014FF0004202EA77
:102840000752CDE90042001C41F5801132462B466B
:10285000FFF753FF03B0BDE8F08F40462146F9E78C
:10286000001B61EB0201001C41F5801300185B4165
:102870002018A2F5001747EB030140EAD570B619FE
:102880006D4111E06D084FEA360645EAC0754FEA22
:102890000752001B61EB0201001C41F58011490841
:1028A0004FEA30000019514132462B4603B0BDE8D3
:1028B000F04FFFF713BF0098012240000023D0EB38
:1028C000020263EBE073009821464FEAE074B8EB34
:1028D000000061EB0401E9E783F000435BE781F06E
:1028E000004158E72DE9F04D81EA030404F0004B64
:1028F00021F0004514464FF0000A23F0004150EA51
:10290000050220D054EA01021DD0C5F30A57024641
:10291000C5F31303C1F31300C1F30A5640F4801545
:1029200043F48013A7EB0608101BD64608F2FD38C7
:1029300073EB050002D308F1010801E092185B4136
:10294000B8F1000F03DA00200146BDE8F08D002049
:102950004FF48011064684460EE0171B73EB050703
:1029600005D3121B63EB050306434CEA010C49082F
:102970004FEA300092185B4150EA0107EDD152EA6C
:10298000030012D082EA040083EA0501084305D05F
:10299000101BAB4106D20122002306E000224FF0BB
:1029A000004302E06FF0010253101AEB06004CEBFB
:1029B000085110EB0A0041EB0B01BDE8F04DFFF7A9
:1029C0008DBEC1F30A52C1F3130140F2FF3341F44B
:1029D00080119A4202DA00200146704740F23343E8
:1029E0009A42A2F2334202DC5242FFF767BE00F085
:1029F0002BB8000030B5041E71F1000404DB4FF069
:102A00000044404264EB0101141E73F1000405DB35
:102A10001C464FF00043524263EB0403994208BF47
:102A2000904230BD064C074D06E0E06840F00103DF
:102A300094E8070098471034AC42F6D3FDF75CFBEE
:102A40002837000048370000202A04DB203A00FA2B
:102A500002F1002070479140C2F1200320FA03F3F5
:102A6000194390407047202A06DBCB17203A41FAE1
:102A700002F043EAE07306E041FA02F3D040C2F10B
:102A80002002914008431946704700000FB4054BDF
:102A900010B503A9044A029800F0DCF810BC5DF8F8
:102AA00014FB0000190F00003000002037B5144659
:102AB0000846064B6A46214600F02CFA0446694651
:102AC000002000F0BEFD20463EBD00004336000061
:102AD00002E008C8121F08C1002AFAD170477047E7
:102AE000002001E001C1121F002AFBD17047000045
:102AF0002DE9FF5FDDE90220010DDDF838B002436A
:102B000018D044F61050A1F2FF3141430D140F9834
:102B1000012820D0A5EB0B00401C5FEA000A4FF013
:102B20000004474EDFF81C91A046504616D5CAF166
:102B3000000728E00F98012443A2012808D00021B3
:102B400000980F9BC0E90021C0E90243BDE8FF9F48
:102B50006FEA0B01F4E7CBF10000DEE7074612E075
:102B6000F80707D02246334640464946FFF7C7FCE0
:102B7000804689462246334610461946FFF7BFFC79
:102B800004460E467F10002FEAD1DDE90201BAF1BA
:102B9000000F42464B4602DAFFF7B1FC01E0FFF7B7
:102BA000A1FE04460E460022284BFFF723FF03D860
:102BB0004FF0FF30014607E00022254B204631460A
:102BC000FFF7E9FDFFF7FDFE102409E0002C0ADB0A
:102BD0000A220023FFF741FD019B30321A55641E83
:102BE00050EA0102F2D1641C019AC4F111031444A9
:102BF0000F9A012A03D0012208430DD10AE00843AD
:102C000004D000204FF0110B0F9080E7A3EB0B05D1
:102C10006D1E0DE05B4504DD4FF0000205F101057E
:102C200004E003DA4FF00002A5F10105002AECD020
:102C300000980F99C0E90231C0E9004586E700001D
:102C4000000024400000F03F300000000000F0438E
:102C50000000E03F2DE9FF4F8DB09B460F46044634
:102C6000002606E025280BD05A460F999047641C91
:102C7000761C20780028F5D111B03046BDE8F08FE1
:102C80000025A8460122984900E0054314F8013FB9
:102C9000203B02FA03F00842F7D120782E2817D102
:102CA00014F8010F45F004052A280ED06FF02F020A
:102CB0002078A0F1300109290AD808EB880102EB3D
:102CC000410100EB0108641CF2E757F8048B641C17
:102CD00020786C280DD004DC4C2812D06A2811D141
:102CE00004E074280DD07A280CD10AE045F40015D0
:102CF00007E0617845F48015814202D1641C05F536
:102D00008015641C2278692A45D008DC002AB3D0DB
:102D1000582A69D0632A10D0642A08D13BE0702A6F
:102D200067D0732A13D0752A5CD0782A5CD01046FD
:102D30005A460F999047761CD3E017F8040B8DF88C
:102D4000000000208DF80100E946012003E057F85B
:102D5000049B4FF0FF3069074FF0000501D40AE0F3
:102D60006D1C45450DDA8542FADB19F8051000297E
:102D7000F6D106E06D1C8542FCDB19F80510002930
:102D8000F8D12E4404E019F8010B5A460F999047E8
:102D90006D1EF8D2A5E00A200021CDE90801C5F397
:102DA000025002280DD001CFC117031E71F100039C
:102DB0000DDA4FF0000CD0EB0C006CEB01012D2371
:102DC00008E0FF1D27F00707F7E80201EDE72B05F4
:102DD00004D52B238DF8283001233BE0EB0739D0B5
:102DE0002023F7E70A2000E010200021CDE90801A8
:102DF00007E01020002145F00405CDE908014FF05F
:102E00000808C5F3025002280FD001CF00214FF06F
:102E1000000A2B071FD5702A0DD0DDE908C38CF0FE
:102E2000100C5CEA030C0CD015E0FF1D27F007071F
:102E3000F7E80201EBE740228DF828204FF0010A65
:102E40000BE050EA010306D030238DF828308DF8CE
:102E5000292002239A46582A04D024A20DF12009E1
:102E60000B9209E026A2F9E7DDE90823FFF7F5FB5D
:102E70000B9B9B5C09F8013D50EA0102F4D1ADEBDC
:102E8000090020300890680701D44FF00108089924
:102E9000884502DDA8EB010000E000208046002507
:102EA00006E00AA85A46405D0F9990476D1C761CB3
:102EB0005545F6DB04E030205A460F999047761CC2
:102EC000B8F10001A8F10108F5DC05E019F8010BE3
:102ED0005A460F999047761C0899481E0890002979
:102EE000F4DC641CC5E600000928010030313233EF
:102EF0003435363738396162636465660000000036
:102F0000303132333435363738394142434445461F
:102F1000000000002DE9FF4F95B09B46894606460C
:102F200000250FE2252877D100242746F84A012101
:102F3000059400E0044316F8013F203B01FA03F03A
:102F40001042F7D130782A2811D06FF02F03307853
:102F5000A0F13002092A16D8059A44F0020402EBC7
:102F6000820203EB42021044761C0590EFE759F809
:102F7000042B0592002A03DA504244F400540590D1
:102F800044F00204761C30782E2816D116F8010F72
:102F900044F004042A280DD06FF02F023078A0F1FD
:102FA0003003092B09D807EB870302EB4303C7184B
:102FB000761CF3E759F8047B761C30786C280FD028
:102FC00006DC4C2817D068280DD06A2814D104E0FC
:102FD000742810D07A280FD10DE044F400140AE0D0
:102FE00044F4801401E044F440147278824202D127
:102FF00004F58014761C761C307866280BD013DC20
:10300000582877D009DC002875D04528F6D0462806
:10301000F4D047281AD19DE118E0632835D0642800
:1030200079D0652812D195E1702873D008DC672823
:10303000F1D069286FD06E280DD06F2806D1B5E089
:1030400073282CD0752875D0782874D05A461799D3
:1030500090476D1C75E1C4F30250022809D0032883
:103060000DD0D9F8001004280DD00D6009F1040925
:1030700067E1D9F80010EA17C1E90052F6E7D9F87C
:1030800000100D80F2E70D70F0E719F8041B8DF8C1
:10309000001000208DF80100EA46012003E059F8F5
:1030A00004AB4FF0FF3061074FF0000102D40DE098
:1030B00008F101018846B9420FDA8045F8DB1AF8B9
:1030C00008100029F4D108E008F101018846814286
:1030D000FADB1AF808100029F6D105985B46A0EB38
:1030E000080721463846179A00F094FA284400EB66
:1030F000080507E04DE029E10DE01AF8010B5A46FA
:1031000017999047B8F10108F7D25B462146384637
:10311000179A13E142E00A220092C4F302524FF0E0
:10312000000A022A08D059F804CB032A4FEAEC71AE
:103130000AD00DE029E02AE009F1070121F0070299
:10314000F2E802C1914609E00FFA8CFC4FEAEC71FB
:10315000042A03D14FFA8CFC4FEAEC71002907DAFC
:103160000A460021DCF1000C61EB02012D2202E095
:10317000220504D52B228DF80420012203E0E2076A
:1031800001D02022F7E7904659E00A2102E0102200
:103190000DE010214FF0000A00910BE010224FF0DB
:1031A000000A44F004040827009203E008224FF0CC
:1031B000000A0092C4F30252022A05D059F804CB47
:1031C0000021032A08D009E009F1070121F00702D4
:1031D000F2E802C1914605E01FFA8CFC042A01D1F5
:1031E0000CF0FF0C4FF00008220728D5702806D0FD
:1031F000009B83F0100353EA0A0305D00EE040223F
:103200008DF80420012208E05CEA010206D0302299
:103210008DF804208DF8050002229046009B83F073
:10322000080353EA0A030AD15CEA010201D16207EA
:1032300005D530228DF804204FF001087F1E582854
:1032400004D034A003900EA802900DE036A0F9E758
:1032500053466046009AFFF700FA84460398825C62
:103260000298401E029002705CEA0100F0D10298C0
:1032700006A9081A00F1200A600702D524F4803458
:1032800000E00127574502DDA7EB0A0000E000201F
:1032900000EB0A01009005984144401A0590E003B4
:1032A00006D45B462146179A059800F0B3F9054409
:1032B000002706E001A85A46C05D179990476D1C8B
:1032C0007F1C4745F6DBE0030CD55B462146179A89
:1032D000059800F09FF9054404E030205A461799FC
:1032E00090476D1C0099481E00900029F5DC08E00D
:1032F000029802995A460078491C02911799904702
:103300006D1CBAF10001AAF1010AF1DC65E10000CF
:1033100009280100303132333435363738396162AB
:10332000636465660000000030313233343536376F
:1033300038394142434445460000000000F058F946
:103340000544761C307800287FF4ECAD19B028468F
:10335000BDE8F08F620700D4062709F1070222F0CA
:10336000070CFCE80223E14603F000485FEA080C82
:1033700002D00FF2702C0DE05FEA045C02D50FF270
:10338000682C07E05FEAC47C02D00FF2602C01E0F9
:10339000AFF2700C4FF0FF3823F00043CDF850C06F
:1033A00065280CD006DC452809D046281DD04728C2
:1033B0003DD13DE0662818D067287ED138E0002155
:1033C000112F01DB112000E0781CCDE9000106A9D6
:1033D0000EA8FFF78DFBDDE90F010E9A0391002186
:1033E000009207F1010A04914DE04FF00040009770
:1033F000CDE9011006A90EA8FFF77AFBDDE90F025F
:1034000003920E9B11990022DDF80CA00093049208
:1034100011B9791C00EB010AB7EB0A0004D4C0F122
:10342000FF3007F1010A0490AAEB0700019044E085
:10343000012F00DA01270021112F01DD112000E00A
:103440003846CDE9000106A90EA8FFF751FBDDE9DA
:103450000F010E9A0391002104910092BA462107B0
:103460000CD40399514500DA8A46BAF1010F05DD03
:10347000009AAAF10101515C302908D0B84202DA61
:1034800010F1040F06DA0121CDE9011015E0AAF1CF
:103490000101E9E7002805DC049901440491AAEB45
:1034A000000102E0411C514500DD8A460499401AA2
:1034B000401C01904FF000400290200704D4019876
:1034C000504501DBCDF8048000208DF84F000298B4
:1034D0000DF14F07B0F1004F25D02B200E90029830
:1034E0004FF0020800280CDA404202902D200E9086
:1034F00007E00A210298FFF79AF83031029007F8A6
:10350000011DB8F10001A8F10108F2DC02980028C1
:10351000EFD1791E0E980870307800F0200040F04E
:10352000450007F8020D12A8C01B00F10708149807
:10353000007800B1012000EB0A01019801EBE07175
:1035400005984144401A401E0590E00306D45B46AE
:103550002146179A059800F05DF805441498007804
:1035600018B15A46179990476D1CE00324D55B4665
:103570002146179A059800F04DF805441CE0049880
:10358000002807DBDDE90301884203DD0098405C89
:10359000179901E0179930205A469047049805F191
:1035A0000105401C04900198401E019004D12E207A
:1035B0005A46179990476D1CBAF10001AAF1010A09
:1035C000DDDC05E017F8010B5A46179990476D1C92
:1035D000B8F10001A8F10108F4DC5B462146179A16
:1035E0000598ABE62D0000002B0000002000000035
:1035F0002DE9F041044600251E461746880404D4F0
:1036000005E039462020B0476D1C641EF9D52846D8
:10361000BDE8F0812DE9F041044600251E469046A4
:10362000C80301D5302700E02027880404D505E031
:1036300041463846B0476D1C641EF9D52846BDE8A2
:10364000F0810A68531C0B601070704734524500BB
:10365000000000000000000000000000000000006A
:10366000000000000014000000000000330076623B
:10367000218001C8200E000000FD000B3716074016
:103680000C000C00001000C336101024F02A002F8C
:10369000195E465F78000000000000000000000096
:1036A00000000000001400000000000033007662FB
:1036B00021B82BEE0B70000300FDC00B371607403E
:1036C0000C000C00001000C336101024F02A002F4C
:1036D000195E465F78000000000000000000000056
:1036E00000000000001400000000000033007662BB
:1036F000210A00644101000200FD000B371607405B
:103700000C000C00001000C336101024F02A002F0B
:10371000195E465F78000000000000000000000015
:1037200000000000000000004837000000000020FA
:1037300050000000D02A0000983700005000002000
:10374000B0350000E02A000000000000000000008A
:103750000000010000000000000000000001000067
:103760000000000000000000000000000000000059
:103770000000000000000000000000000000000049
:1037800000000000009600000101000000000000A1
:103790000000000000000000FFFFFFFFFFFFFFFF31
:1037A000FFFFFFFFFFFFFFFFFFFFFFFFFFFFFFFF29
:1037B000FFFFFFFFFFFFFFFFFFFFFFFFFFFFFFFF19
:1037C000FFFFFFFFFFFFFFFFFFFFFFFFFFFFFFFF09
:1037D000FFFFFFFFFFFFFFFFFFFFFFFFFFFFFFFFF9
:020000021000EC
:10FFF000FFFFFFFFFFFFFFFFFFFFFFFFFFFF5ACBEA
:04000003000000F108
:00000001FF
