:020000020000FC
:10000000003200207919000081190000270A000041
:100010008519000087190000891900000000000000
:100020000000000000000000000000008B1900002C
:100030008D190000000000008F19000091190000C8
:100040009319000093190000931900009319000000
:1000500093190000931900009319000093190000F0
:1000600093190000A31600009319000093190000D3
:10007000F1080000490900009319000093190000DD
:10008000590A000093190000931900009319000009
:1000900093190000931900009319000093190000B0
:1000A0009319000093190000050A00001B0A0000C4
:1000B0009319000093190000931900009319000090
:1000C0009319000093190000931900009319000080
:1000D0009319000093190000931900009319000070
:1000E0009319000093190000931900009319000060
:1000F000DFF80CD002F0A4FC00480047BF07000066
:100100000032002010B5002807DA4A07140EFC4A16
:1001100000F00F031B1FD45403E04A07130EF94AE3
:10012000135410BD70B504460D460122114602203D
:1001300001F0C8FC22462946022001F0DDFC102116
:10014000002001F007FE70BD0FB410B5C2B045A885
:10015000019002A8019A449902F0C8FC84B2214699
:1001600002A8FFF7DFFF00200190204642B010BC3C
:100170005DF814FB2DE9F05F4FF00009CA46CB464D
:10018000E1480578681CC5B2022D00DB0025DF4878
:1001900030F81560EA2E04DBDDA0FFF7D5FFBDE8DF
:1001A000F09FC5EB0510DE4901EB0018DD48007833
:1001B00041F2D5214843DC49084400F5805090F8CD
:1001C000D442142C34DAD748007841F2D521484380
:1001D000D5490844C4EB041100EB0110C71C32469A
:1001E0003946404602F012F80646CE48007841F201
:1001F000D5225043CC4A104400F596500655C948C4
:10020000007841F2D52148431146084400F580505A
:1002100090F8D402401CC1B2C248007841F2D52205
:100220005043C14A104400F5805080F8D41202E0D7
:10023000BEA0FFF789FF0020C349087000BFAEE7EA
:1002400010B5B1480078401CAF49087008460078E6
:10025000C0EB0010B24901EB0010BC49086000235C
:1002600003224FF41651184601F034FD0921B84815
:1002700001F094FB0121002001F057FD102000F057
:100280005CFC01F013FC10BD10B51021B04890309B
:1002900001F084FB0421AE48903001F08AFB10BDD0
:1002A00010B5022000F0B9FEAA490870084600788F
:1002B00020B9A94800F03BFFA6490870A54800787E
:1002C00010B9012000F05DFFA248007828B90F2185
:1002D000002001F022F89F4908709E48007820B95C
:1002E000002000F08CFF9B4908709A48007810B9F4
:1002F000002000F067FF10BD38B50A226946974814
:1003000002F080F804469348007820B9204600F0B7
:100310000EFF9049087038BD70B505460C468D48F3
:10032000007868B9F02C02DD4FF0FF3070BD29462F
:10033000204600F0B0FF8749087000208849087007
:100340008448007850B905E07F480078012801D141
:10035000FFF710FF00F0DEFF0028F5D07D480078A1
:1003600030B901F0C2F87B49087001207C4908705F
:100370007848007808B90020D8E70120D6E70FB404
:1003800010B5C2B045A8019002A8019A449902F0A4
:10039000ADFBC4B2F02C05DD0020019042B010BCD2
:1003A0005DF814FB601CC1B202A8FFF7B5FF002086
:1003B00001902046F2E710B500246648007808B1A5
:1003C000FFF76EFF6348007848B96548007830B998
:1003D00001F08BF85F4908700120614908705D48A1
:1003E0000078C8B95E480078012815D10DE0601C7E
:1003F00084B241F65830844201DD002010BD5248DD
:100400000078012801D1FFF7B5FE01F08EF8002831
:10041000EDD00020524908704E48007840B9514B49
:100420004E4A121F5049FF2001F0BAF8494908709E
:100430004848007848B94A48007830B901F055F882
:10044000444908700120464908700120D6E710B5DC
:10045000044621464FF0804001F00EFC9823022212
:100460000021500701F0F6FB00BF4FF0804001F083
:100470001BFC00F040000028F7D10121880701F0A3
:1004800016FC00BF4FF0804001F00EFC00F0800031
:100490000028F7D10C2000F050FB10BD70B50024EF
:1004A000012032490870102000F052FB1D480078EE
:1004B000401C1C4908702E480078401C2C490870CC
:1004C00018480078022803DB00201649087006E06F
:1004D00027480078022802DB002025490870002107
:1004E0001048007841F2D52250430F4A104400F5DD
:1004F000805080F8D412102000F01FFB77E000003D
:1005000018ED00E000E400E0080000200A000020F0
:100510000A706B7420746F6F204C6F6E672300003D
:100520001A27002006000020470100200A7061639E
:100530006B6574206D656D6F7279206973206675C7
:100540006C6C2023000000001A0000201000002026
:10055000306000400000002080520C354C0000202C
:1005600015000020020000200100002019000020DA
:1005700007000020F748007841F2D5214843F649AA
:100580000844C4EB041100EB0115F248007841F275
:10059000D5214843F049084400F5805090F8D40232
:1005A0003030A87004F13100687031202870E948BB
:1005B000007841F2D52250430A46104400F5965087
:1005C000005DC01CC1B22846FFF7A6FE68B1E14835
:1005D000007841F2D5225043DF4A104400F596508E
:1005E000005DC11CDDA0FFF7AFFD601CC4B2E14897
:1005F000007801280CD1D748007841F2D521484332
:10060000D549084400F5805090F8D402A042B1DCEE
:100610000020D9490870204670BD10B588B0032469
:100620000120D4490870D54901A801F0E2FE1AE082
:10063000C84A127841F2D5235A43C74B1A44C4EB37
:10064000041302EB0310C34A127841F2D5235A4334
:10065000C14B1A4402F59652125DD21CD1B2FFF77B
:100660005BFE601CC4B201A8005D38B1C1480078CF
:10067000012803D1C24800780028D9D0E01EC0B2BA
:1006800008B010BD10B505211020FFF73BFD062175
:100690001B20FFF737FD07211A20FFF733FD092143
:1006A0000D20FFF72FFD08210C20FFF72BFD042163
:1006B0000920FFF727FD10BD10B5B24801F0DFF9A2
:1006C00000F0400008B1002010BD0120FCE770B52B
:1006D000002401261B2000F03BFA00264CE0AA482B
:1006E000007841F2D52148439B490844C6EB0611E6
:1006F00000EB011503240DE0A44801F009FC2919C1
:100700001B22A2480E3001F0F8FC242104F136002F
:10071000295437349B2CEFD3E01EC2B29A4800789C
:1007200041F2D52148438C49084400F5965096493A
:10073000097841F2D5235943874B194401F580517B
:1007400091F8D41242549048007841F2D5214843A0
:100750001946084400F5805090F8D402401CC1B2FC
:100760008948007841F2D52250431A46104400F5DA
:10077000805080F8D412761C142EB0DB01207E4904
:1007800008701B2000F0D9F970BD10B54FF400318E
:10079000002001F048FB044644B97DA0FFF7D4FCDB
:1007A00004217848C03001F075F907E07EA0FFF71A
:1007B000CBFC04217348C03001F068F910BD00245F
:1007C00042F2AA51644801F0E2FD002001F0F4FA7F
:1007D000FFF758FFFFF734FDFFF7D7FFFFF754FD92
:1007E000FFF75EFD83E0FFF7E6FD00284BD0042114
:1007F0006448C03001F04EF9002474A15F4801F054
:10080000DDFDA8B90120734908705F48007841F206
:10081000D52148435049084400F5805090F8D4024F
:1008200010B1FFF73BFE03E004216BA0FFF774FD5E
:1008300003226AA1514801F0CFFD08B9FFF7EDFE90
:10084000042267A14D4801F0C7FD60B94B49097901
:10085000303901EBC10202EB01114FF6FF7202EADF
:10086000C100FFF7F4FD04225FA1444801F0B4FD8C
:1008700008B9FFF741FD41480078232820D13F48BF
:10088000FFF762FC1CE004213E48C03001F0FEF896
:10089000601C84B2C82C13DD00F0CCFF54490870F2
:1008A000FFF7FEFC534800F042FC5148007830B995
:1008B00000F01BFE4E49087001204F4908700024CB
:1008C000FFF7FAFE98B14D480078012805D12A4873
:1008D000007810B9FFF7FBFE09E04848007830B90E
:1008E0000120464908700121284801F0FFFA7AE703
:1008F00010B54FF0804001F0D7F9012823D12148ED
:10090000C03001F0BCF800F0040028B104211D48FB
:10091000C03001F0BFF816E004211A48C03001F0E1
:10092000B5F8002302221946500701F093F900BFE1
:100930004FF0804001F0B8F900F040000028F7D1F6
:100940000C2000F005F910BD10B52D4801F0ACF9F0
:1009500010BD000007000020470100200A20746F2E
:100960006F206C6F6E67207061636B657420256407
:10097000230000001900002018000020480000207B
:10098000160000200060004006000020F126002034
:100990000A696E7465677269747920636865636B50
:1009A000206F6B23000000000A70726F626C656D2F
:1009B00020696E20696E74656772697479206F664C
:1009C000206669726D7761726520230031736C6FE8
:1009D000740000001B00002031303000315245000F
:1009E00053594E430000000046524551000000009C
:1009F0000000002080520C3515000020050000206A
:100A00000004004010B52021002001F0A3F90022CD
:100A10001146022001F056F810BD10B5002108461D
:100A200001F098F910BD00204E49086000BF4D4804
:100A300000680028FBD000BFBFF34F8F4A48006812
:100A400000F4E06049490843001D47490860BFF3CE
:100A50004F8F00BF00BFFEE710B5002001F061F925
:100A6000C4B2002001F054F900F00800082810D1A9
:100A7000002211463E4800F0AFFF00BF201EA4F147
:100A80000101CCB2FAD101220021394800F0A4FFC3
:100A900010BD38480068047037480088401C36494B
:100AA000088008460088E92805DC32480068401CB8
:100AB000304908600BE031480078C0EB0010304945
:100AC00001EB00102B49086000202B490880242CE2
:100AD00031D129480088A92803DA2A48007801285A
:100AE00022D1254800882849244A127821F812008A
:100AF00022480078401C21490870084600780228E6
:100B000001D1002008701D480078C0EB00101C497E
:100B100001EB0010174908600020174908801949A7
:100B20000870012019490870134800881649134AB3
:100B3000127821F8120000BFAAE700F01F0201217D
:100B400091404209920002F1E022C2F80011704780
:100B500000F01F02012191400D4A430942F8231081
:100B600070470000280000200CED00E00000FA05AE
:100B700030600040100000200E000020080000201F
:100B80001A2700201B0000200A0000201A00002065
:100B900080E100E00146002011B14FF480720A604C
:100BA0007047024600204FF040231A7200BF4FF0FA
:100BB00040231B8803F4E063002BF8D021B14FF0F1
:100BC00040231B790B7002E04FF040231B797047E4
:100BD00038B505460024092000F067FE0820FC49CE
:100BE000087024B90021FF20FFF7DBFF044624B979
:100BF0006946FF20FFF7D5FF04460820F449091F86
:100C00000870092000F046FE2CB925B19DF80000BF
:100C100000F01F002870204638BDF8B504460025B6
:100C2000FF2600BF6846FFF7D3FF0546301EA6F13A
:100C30000101CEB201D10120F8BD1DB99DF800001F
:100C4000A042EFD12846F7E770B504460D460026CE
:100C5000092000F02AFE0820DD49087005E014F89C
:100C6000010B0021FFF79DFF0646281EA5F101019B
:100C7000CDB201D0002EF2D00820D549091F08704E
:100C8000092000F007FE304670BD38B504460094D8
:100C900001216846FFF7D8FF38BD38B500241CB9DC
:100CA0006846FFF795FF04462FE09DF8000020B14D
:100CB00013280ED0142817D100E020E01CB9B12071
:100CC000FFF7E3FF04461CB91220FFF7A6FF044616
:100CD00015E01CB9B120FFF7D8FF04461CB912205B
:100CE000FFF79BFF04460AE01CB9B120FFF7CDFFD8
:100CF00004461CB91220FFF790FF044600BF00BF56
:100D00001CB96846FFF764FF04469DF800001228EE
:100D100001D0002CC9D0204638BD38B5002400BF12
:100D2000092000F0C2FD0820A949087024B900215B
:100D3000FF20FFF736FF044624B96946FF20FFF77E
:100D400030FF04460820A249091F0870092000F05E
:100D5000A1FD2CB99DF8000000F0200000B101E0D9
:100D6000002CDDD000BF204638BD38B50546002434
:100D7000009514B9FFF7D1FF044624B90121684654
:100D8000FFF762FF0446204638BD2DE9F0410546D5
:100D90000F4616460024092000F087FD08208C49E4
:100DA00008703CB9C5F3022141F018000021FFF79B
:100DB000F8FE044624B9E8B20021FFF7F2FE04462B
:100DC00005E016F8010B0021FFF7EBFE0446381E84
:100DD000A7F1010701D0002CF3D008207C49091F9E
:100DE0000870092000F056FD2046BDE8F08138B5B6
:100DF00000241CB96846FFF7EBFE04462FE09DF87F
:100E0000000020B113280ED0142817D100E020E0F4
:100E10001CB9B120FFF739FF04461CB91220FFF7B7
:100E2000FCFE044615E01CB9B120FFF72EFF044676
:100E30001CB91220FFF7F1FE04460AE01CB9B020ED
:100E4000FFF723FF04461CB91120FFF7E6FE044616
:100E500000BF00BF1CB96846FFF7BAFE04469DF804
:100E60000000112801D0002CC9D0204638BD10B593
:100E7000002414B9FFF7BBFF04462CB9554A4021A2
:100E80008800FFF782FF04461CB9BB20FFF76DFF07
:100E9000044614B9FFF701FF0446204610BD38B5DB
:100EA00000244D48007800B30020009034B96A4611
:100EB000012140F2FA30FFF768FF04460420009059
:100EC00034B96A46012140F22E30FFF75EFF044636
:100ED000002000902CB96A4601210D20FFF755FF34
:100EE000044600203C49087000BF3C48007830B1FF
:100EF000FFF7BDFF044614B90020384908702046AA
:100F000038BD70B50446002501203449087024B16D
:100F1000012C0CD0022C1DD113E0402230492D4869
:100F200001F01CFA4FF47A702E49086014E0402258
:100F30002D49284801F012FA4FF41640294908605B
:100F40000AE040222949234801F008FA28482549A7
:100F5000086001E0022500BF00BF284670BD70B5E3
:100F60000546002414B9FFF742FF04461CB9284681
:100F7000FFF7C7FF044614B9FFF791FF044614B901
:100F8000FFF78BFE0446204670BD10B500241CB947
:100F9000A220FFF7EAFE044614B9FFF7BEFE04469E
:100FA000204610BD002000210822094B1A7000E0E5
:100FB000491C104A126812B9B1F57A7FF8DBB1F515
:100FC0007A7F00D101200822014B1B1F1A70704745
:100FD00080600040FA2800202D0000202C00002016
:100FE0001E370000300000209E360000DE36000074
:100FF000E0930400800E0C4238B50024C820FFF7AF
:1010000044FE04464FF48050009000BF0098411EFB
:1010100000910028FAD1204638BD70B5054600245D
:10102000092000F042FC4FF4C250FE49088008201D
:10103000FC49603981F864000020FB490860012008
:101040004FF04021888143F2430008824320088208
:101050000820F4491C31087014B9FFF7CDFF04468D
:101060000B20F24908808815F049083108800920D2
:1010700001218140EE4A430942F8231000BF0021BC
:10108000002807DA4A07160EEA4A00F00F031B1F72
:10109000D65403E04A07130EE74A135400BF092051
:1010A00000F0F8FB14B9FFF77DFF044614B9FFF711
:1010B0006CFF044614B9FFF79AFE04461CB9284693
:1010C000FFF71FFF044614B9FFF7E9FE044614B901
:1010D000FFF7E3FD0446204670BD10B5002409204B
:1010E00000F0E3FB4FF4C250CE4908800820CD4900
:1010F000603981F864000120CB4908604FF040213D
:10110000888143F243000882432008820820C549B1
:101110001C310870C820FFF7B8FD0446204610BDFA
:1011200010B50024FFF7B9FD0446204610BD2DE997
:10113000F04781464FF0000A0120C0490870484638
:1011400001F00AFA0746BE4ABE4B01F093F9054684
:1011500001F00FFA0446BC494C72200A8872200C38
:10116000C872BA48814504D307204876162008760D
:1011700004E00320B4494876082008765046BDE8CC
:10118000F08730B502460020AF4C637D12B1012AD2
:1011900004D101E0002103E0082101E0022000BFAA
:1011A00000BF70B9A84C647D24F0380444EA010300
:1011B000A54C647D9C4204D00124A04D2C70A24C0F
:1011C000637530BD10B5024600209F4B197F12B1E8
:1011D000012A06D102E021F0400104E041F0400183
:1011E00001E0022000BF00BF40B9974B1B7F8B423C
:1011F00004D00123914C2370934B197710BD10B587
:1012000002460020904B197F12B1012A06D102E05C
:1012100021F0080104E041F0080101E0022000BFD4
:1012200000BF40B9884B1B7F8B4204D00123834C05
:101230002370854B197710BD70B505460E46002406
:10124000002083490870F02D00DD042414B9FFF755
:1012500024FD04462CB9324629461020FFF795FD9F
:1012600004464CB9784880F8275090F8260040F0A2
:101270004000754981F8260014B9FFF710FE0446B6
:1012800014B9FFF70AFD04461CB9B520FFF76DFD40
:101290000446204670BD73B50D46002400206C49FD
:1012A00008709DF80000401CC0B200909DF800003E
:1012B000F02800DD042414B9FFF7EFFC04462CB934
:1012C0006A4601211020FFF760FD04463CB99DF8F5
:1012D0000000411E2A461120FFF757FD044654B96D
:1012E000F020594981F82700084690F8260020F0A0
:1012F000400081F8260014B9FFF7D1FD044614B967
:10130000FFF7CBFC04461CB9B520FFF72EFD0446C1
:1013100020467CBD4E48007870472DE9F0410446D8
:101320000A460020002114B1012C05D102E041F051
:10133000800103E000BF01E0022000BF00BF0028E1
:1013400046D1102A41D2DFE802F008090A0B0C0D41
:101350000E0F101112131415161700BF00BF00BF97
:1013600000BF00BF00BF00BF00BF00BF00BF00BF85
:1013700000BF00BF00BF00BF41EAC20C0CF0FF017C
:101380004FF0030C0CEB8207DFF8C8C0DCF800C09C
:101390004FF06408BCFBF8F840F6C41C07FB0CFCDB
:1013A000BCFBF8F601231D0207E05B1C4FF4007C38
:1013B0004CFA03F5072B00D301E0B542F5D800BF86
:1013C00003F0FF0C4CEA010101E0022000BF00BF66
:1013D00078B9DFF874C09CF814C08C4509D04FF080
:1013E000010CDFF8588088F800C0DFF85CC08CF88A
:1013F0001410BDE8F08138B500240320009014B922
:10140000FFF74DFD044601201349087014B9FFF79A
:1014100044FC04462CB96A4601210D20FFF7B5FCB7
:1014200004461BE060600040100D0C422824004080
:1014300080E200E018ED00E000E400E02C00002075
:10144000AFC0EE131DA6643FFA280020801361335D
:1014500034000020300000202D0000201CB9B520F1
:10146000FFF783FC0446204638BD38B5002402202F
:10147000009014B9FFF713FD044614B9FFF70DFCF3
:1014800004460120FA4908702CB96A4601210D2052
:10149000FFF77BFC04461CB9B520FFF766FC044649
:1014A000204638BD70B5054600240020F14908707B
:1014B000F02D00DD04244CB9EF4880F8275090F857
:1014C000260040F04000EC4981F8260014B9FFF7EF
:1014D000E6FC044614B9FFF7E0FB04461CB9B22051
:1014E000FFF743FC0446204670BD10B500240020E1
:1014F000E049087054B9F020DF4981F82700084618
:1015000090F8260020F0400081F8260014B9FFF77B
:10151000C6FC044614B9FFF7C0FB04461CB9B22050
:10152000FFF723FC0446204610BDD24800787047E0
:101530002DE9F04105460E4617460024092000F02B
:10154000B4F90820CD4908703CB9C5F3022141F037
:1015500038000021FFF725FB044624B9E8B200213A
:10156000FFF71FFB044624B90021FF20FFF719FBFA
:10157000044605E039467F1CFF20FFF712FB0446B6
:10158000301EA6F1010601D0002CF3D00820BB4983
:10159000091F0870092000F07DF92046BDE8F081A0
:1015A0002DE9F84305460C4690461E460027FFF7F6
:1015B000BCFF002847D0B04890F8260000F040005B
:1015C000B0B11CB1AC4890F827002070AA4890F840
:1015D000270000909DF80000A84200DD009527BB81
:1015E00042469DF800101020FFF7A2FF07461CE0BE
:1015F0002FB96A4601211020FFF79AFF07469DF890
:101600000000401EC0B2009014B19DF80000207090
:101610009DF80000A84200DD009537B942469DF8CC
:1016200000101120FFF784FF07465EB137B932463C
:10163000012140F21230FFF77BFF074630786B380C
:1016400040B2307002E00CB1002020703846BDE896
:10165000F88338B5002440F2E1708949088014B954
:10166000FFF71DFC0446012081490870A02000906E
:1016700034B96A46012140F2FA30FFF786FB04468E
:101680000020009034B96A46012140F22E30FFF765
:101690007CFB04461CB9B220FFF767FB04462046DA
:1016A00038BD1CB5002434B901AA012140F23630FE
:1016B000FFF73EFF044634B96A46012140F2373055
:1016C000FFF736FF04469DF8040000F0100010B14B
:1016D00001206C4908709DF8040000F0040010B16E
:1016E00001206449087034B901AA012140F2363062
:1016F000FFF74BFB044634B96A46012140F237300C
:10170000FFF743FB04464FF480705F4908801CBD1F
:1017100070B50546002414B9FFF7C1FB044614B99F
:10172000FFF7BBFA04461CB9BC20FFF71EFB0446BA
:1017300014B9FFF72AFC04465DB134B92A460121E9
:1017400040F21230FFF7F4FE044628786B3840B2BE
:101750002870204670BD2DE9F8430446002646480F
:10176000007D00904448007D00F0800010B1802092
:10177000009001E000200090002E45D1102C40D2B6
:10178000DFE804F008090A0B0C0D0E0F10111213FC
:101790001415161700BF00BF00BF00BF00BF00BF79
:1017A00000BF00BF00BF00BF00BF00BF00BF00BF41
:1017B00000BF9DF8000040EAC400C0B200900320C2
:1017C00000EB8409314800686421B0FBF1F140F678
:1017D000C41009FB00F0B0FBF1F801252F0207E06F
:1017E0006D1C4FF4007040FA05F7072D00D301E09F
:1017F0004745F5D800BFE8B29DF8001008430090B7
:1018000001E0022600BF00BF8EB91B48007D9DF895
:10181000001088420BD036B96A46012140F20730E9
:10182000FFF7B3FA06469DF80000134908753046E5
:10183000BDE8F88370B5002400250220FFF7EDFB1A
:10184000C820FFF722FA0446FFF7D6FB08200B4911
:10185000087000BF0E4800680028FBD01CB911209A
:10186000FFF7DBF904460CB9FFF757FA70BD00002B
:101870002D00002035000020FA2800208060004064
:101880002488004034000020302400403000002034
:10189000800E0C4200F01F0201219140420992008B
:1018A00002F1E022C2F80011704700F01F0201218E
:1018B0009140024A430942F82310704780E100E05A
:1018C0002748008800F0180030B1082808D01028F8
:1018D0000BD0182813D10DE02248234908600EE0F0
:1018E0004FF400402049086009E04FF400401E49D1
:1018F000086004E01D4800681B49086000BF00BF85
:101900001748008800F0070101208840164909683F
:10191000B1FBF0F016490860704700B5002010498F
:10192000088014490870FFF7CBFF00BD0F4908601D
:1019300070470E480068704700B5024672B6084806
:10194000008820F0070006490880084600881043F8
:10195000088062B6FFF7B4FF00BD05480068704715
:10196000002000400024F400380000204000002047
:101970003C000020102400400648804706480047ED
:10198000FEE7FEE7FEE7FEE7FEE7FEE7FEE7FEE72F
:10199000FEE7FEE71B190000F1000000024611807F
:1019A0000120704710B50446217122722373012073
:1019B00010BD0246117101207047024611720120CC
:1019C000704702461173012070470146FF200873DB
:1019D000087108760120704730B5034614461A880E
:1019E0004D000320A8404FF6FF75281A024048001A
:1019F00004FA00F0104482B21A80012030BD10B504
:101A0000034614461A7901208840C0F1FF000240C5
:101A100004FA01F0104482B21A71012010BD10B511
:101A2000034614461A7A01208840C0F1FF000240A4
:101A300004FA01F0104482B21A72012010BD10B5F0
:101A4000034614461A7B01208840C0F1FF00024083
:101A500004FA01F0104482B21A73012010BD02464C
:101A60000B460120984081B2107B08431073107917
:101A700008431071107E084310760120704701461C
:101A8000087D704702461176107E70470246117736
:101A9000107F7047024682F8201092F820007047AD
:101AA000024682F8241092F82400704710B54FF4D3
:101AB00000715E4800F06BFC5C485D498860012065
:101AC000486010BD10B5034651B101209840584CF4
:101AD000606201209840A06201209840A06309E064
:101AE00001209840524C206201209840E062012081
:101AF0009840E063012010BDFFB503460E2B71D264
:101B0000DFE803F007121E29343F4B5788888863AB
:101B1000717C5018401E009046480190481E464C6B
:101B200004EB0010029076E04248001F009050182D
:101B3000401E0190481E414C04EB001002906AE0E8
:101B40005018401E00903E480190481E3A4C04EB4D
:101B5000001002905FE03A4800905018401E01903B
:101B6000481E364C04EB0010029054E05018401E02
:101B7000009034480190481E2F4C04EB0010029056
:101B800049E03048001F00905018401E0190481E48
:101B90002A4C04EB001002903DE05018401E0090CB
:101BA000284828380190481E234C04EB001002906E
:101BB00031E024482C3800905018401E0190481EF7
:101BC0001E4C04EB0010029025E01F480090481EB8
:101BD000022404FB00200190481E1C4C04EB001062
:101BE000029018E016E05018401E0090184801902E
:101BF000481E114C04EB001002900CE01448001F2A
:101C000000905018401E0190481E0C4C04EB001030
:101C1000029000E000BF00BF044800EB03109DE805
:101C2000F000F0C0012004B0F0BD0000002A002048
:101C30000000014008440040010000C00100000C09
:101C400000500040343000400C0005400100005DB1
:101C50000840004030B504460D46A08B00F040001F
:101C600008B1002030BD208900F470612943114380
:101C7000194321810120F5E70246118001207047B8
:101C80000146888870470146088A70470246908B53
:101C900000F0400008B100207047108920F4706304
:101CA0000B4313810120F7E70146888B70470246FA
:101CB0009181012070470146B1F1804F02D1034864
:101CC0000068704702480068FBE700009803004284
:101CD0009883004270B505462D4890FBF1F42D4ED7
:101CE0003485C00290FBF4F090FBF1F0A0F50060A9
:101CF00080B240F40840B0840020307103F07C00D2
:101D000002F003063043234E30733046007D70BD31
:101D100001462048007D704702461E4B1970012085
:101D2000704701461B48007870470246194B1971ED
:101D30000120704701461748007A704710B50346E6
:101D40000AB1144C21741348007E10BD014611489D
:101D5000007E704710B503460E48007920F030022F
:101D60000A430C4C2271012010BD024631B90948CA
:101D7000007B00F03F00074B187305E00548007B2F
:101D800040F04000034B18730248007D704700008C
:101D900020A107000050004030B503460C4616480D
:101DA000008800F0200141F0400119432143114314
:101DB000114D2980012030BD014619B900200F4A7C
:101DC000106002E001200D4A1060012070470146BA
:101DD000094A083A1180012070470748001F00880F
:101DE000704705481030008870470146024A121DAE
:101DF00011800120704700008825004014B1044282
:101E000030B50246002000230AE002F0010424B1AC
:101E10004C1EE51A0124AC40204352085C1CE3B27E
:101E20008B42F2DB30BD30B502460B464FF6FF70F9
:101E3000002116E0555C80EA052008240EE000F43D
:101E400000452DB141F2210585EA4005A8B203E025
:101E50004FF6FF7505EA4000651EECB2002CEEDC83
:101E6000491C9942E6DB30BD00211AE04FF6FF73B2
:101E700003EA012008220EE000F400432BB141F2F6
:101E8000210383EA400398B203E04FF6FF7303EAAD
:101E90004000531EDAB2002AEEDC0D4B23F811008D
:101EA000491CFF29E2DD704730B502460B464FF66C
:101EB000FF70002109E0555C85EA2024044D35F8C7
:101EC000145085EA0025A8B2491C9942F3DB30BDC5
:101ED000002C00200860704701460868A64A50435D
:101EE000A64A10440860C0F30E40704770B504461F
:101EF0000D46FFF7B9FF21464FF4FA70FFF7EAFFEE
:101F0000A5730021C4F80F1000206060A06070BDB0
:101F100070B50446D4F80F00401CC4F80F0000252B
:101F20000AE02046FFF7D8FF014604F1130000EB5A
:101F300045000180681CC5B20A2DF2D3192104F1B5
:101F40000E00FFF7B1FF04F10E01A4F8270070BDE9
:101F500010B502460B46002110E002F1130000EB21
:101F60004100B0F90040581D00EB4100B0F90000FD
:101F7000844201D0012010BD481CC1B20A29ECD313
:101F80000020F8E72DE9F04707460D4690469946B0
:101F900019212846FFF788FF8246B5F819005045F9
:101FA00078D12878484576DC2878401E00EBC001BF
:101FB00001EB4010C4192046FFF7AAFFD4F80F0028
:101FC000D5F80110884219D129462046FFF7C0FFF5
:101FD00060B16BA1404600F00CFAA068401CA06004
:101FE000A0893630A0810120BDE8F087A068401CA0
:101FF000A060A0893630A0810020F5E7D5F8011057
:10200000D4F80F0081422AD9B5F80110B4F80F00B6
:10201000081A86B2A37B324665A1404600F052FD05
:10202000642E02DA60683044606002E02046FFF708
:102030006FFF301EA6F101018EB2F7D1294620466E
:10204000FFF786FF18B14EA1404600F0ABF9A0683B
:10205000401CA060A0893630A0810120C4E7B4F8FC
:102060000F00B5F80110401A86B216F1520F13DABC
:102070002B78C6F1100080F002025649404600F06D
:1020800021FD6068C6F1100181F002010844606022
:102090000120A9E729E020E0642E16DD2B783246E6
:1020A0004D49404600F00EFD6368A2684B4940462A
:1020B00000F008FD4FF4FA70206000206060A0601E
:1020C0000021C4F80F1001208EE72B7832464449D6
:1020D000404600F0F7FC012086E72A784B4641494C
:1020E000404600F0EFFC01207EE72B7852463EA1EF
:1020F000404600F0E7FC012076E730B500231AE007
:102100000478302505EB14140C700C78392C02DDA2
:102110000C78E41D0C70491C047804F00F04303472
:102120000C700C78392C02DD0C78E41D0C70491C05
:10213000401C5C1CA3B29342E2DB30BD70B5144678
:10214000002515E00678303EF2B2401C0678303E9D
:10215000F3B2092A01DDD61FF2B2092B01DDDE1F21
:10216000F3B243EA02160E70491C401C6E1CB5B255
:10217000A542E7DB70BD0000FD430300C39E2600BF
:102180000A77726F6E672072616E646F6D206E7574
:102190006D6265723F206576656E206966204352E8
:1021A0004320697320636F7272656374203F23005C
:1021B0000A6D697373696E67202564207061636BB3
:1021C000657473206F6620736C61766520256423C7
:1021D00000000000A4380000E43700003C39000093
:1021E00058380000EC3800000A77726F6E672043A1
:1021F00052432025782070726F6261626C79206F83
:102200006620736C61766520256423002DE9F84F04
:1022100007460D4691464FF0000AD0463E46012043
:1022200000905AE0002414E03078302802DB307847
:10223000392807DD3078412802DB3078462801DD77
:1022400000200090761C601C04B208F101000FFA17
:1022500080F83078242801D0C845E5DB08F101007A
:102260000FFA80F8761C009810B3204604EBD0716A
:102270004910A4EB410141BBA34604EBDB70C0F362
:102280004F02691C3846FFF759FF204604EBD07116
:102290004910491C51440FFA81FA04EBD071C1F383
:1022A0004701297004EBD0714910491C0D440CE022
:1022B000621C3946681C00F051F8601C50440FFA4B
:1022C00080FA00202870601C0544601C0744C84543
:1022D00003DB1FFA8AF0BDE8F88FA3E72DE9F04190
:1022E00004460E4617464FF00008002531E02278DC
:1022F0003146601CFFF701FF2078B0B9641C01E093
:10230000681C85B2605D2428FAD1681C85B22A4613
:102310002146304600F022F808EB05001FFA80F84D
:102320002C442E44781B07B213E0207806EB4006BD
:1023300024203070761C2078012101EB40004044BD
:102340001FFA80F82078401C381A07B22078401C09
:102350000444002FCBDC4046BDE8F08140EA010395
:102360009B0703D009E008C9121F08C0042AFAD24B
:1023700003E011F8013B00F8013B521EF9D270470F
:10238000D2B201E000F8012B491EFBD270470022B7
:10239000F6E710B513460A4604461946FFF7F0FF64
:1023A000204610BD421E12F8013F002BFBD111F850
:1023B000013B02F8013B002BF9D1704710B5002218
:1023C00000E0521C835C8C5CA34201D1002BF8D14D
:1023D000D8B2E1B2401A10BD30B504460020034621
:1023E00000E05B1C934203D2E05CCD5C401BF8D064
:1023F00030BD034611F8012B00F8012B002AF9D15A
:10240000184670472DE9F04791460F46804604462E
:10241000002614F8015B2DB100F01CF90068405D46
:10242000C007F6D12B2D02D02D2D18D0641E4A46A0
:102430003946204600F012F927B13968A14201D18E
:10244000C7F8008071054FF002040BD54042002808
:1024500003DD00F05DFB0460A007BDE8F08746F4F3
:102460008066E4E70028F8DA00F052FB04606FF0C1
:102470000040F2E72DE9FE4F81EA030404F0004436
:1024800021F0004100944FF0000B23F0004350EA8C
:1024900001045ED052EA03045BD0C3F30A54C1F3D3
:1024A0000A552C44A4F2F3340194A0FB0254C1F366
:1024B000130141F48011C3F3130343F4801301FBB0
:1024C000024400FB034E840A970A44EA815447EA17
:1024D0008357A4FB076802958D0A05FB07854FEA21
:1024E000932C04FB0C542705029D4FEA065847EA3B
:1024F0001637B5EB08056EEB070C870E920E47EA10
:10250000811742EA8312A7FB0201B6EB0B0164EBD1
:1025100000042B0D43EA0C335E1844EB1C50DA46E2
:102520005146E7FB0201C5F313044FEA0B3343EABC
:1025300014534FEA0432019C43EA0603A4F10C044D
:102540000294009CCDE900B400F0E6F803B0BDE8C9
:10255000F08F00200146F9E70EB540F233410291B9
:102560000021CDE900110A460B4600F0D5F803B072
:1025700000BDC1F30A5210B5C1F3130140F2FF339D
:1025800041F480119A4201DA002010BD40F2334339
:102590009A42A2F2334203DC524200F04AF810BDE4
:1025A000904010BD30B50B4601460020202201248A
:1025B00009E021FA02F59D4205D303FA02F5491B11
:1025C00004FA02F52844151EA2F10102F1DC30BD27
:1025D0002DE9F05F0546002092469B468846064658
:1025E000814640241BE0284641464746224600F0EB
:1025F00020F853465A46C01A914110D31146184646
:10260000224600F02FFA2D1A67EB01084F462246AA
:102610000120002100F026FA17EB00094E41201E90
:10262000A4F10104DFDC484631462A464346BDE8B2
:10263000F09F202A04DB203A21FA02F000217047A3
:1026400021FA02F3D040C2F120029140084319461A
:102650007047000000487047E03700002DE9F05F48
:1026600082460078002715468B460AF10104B946D8
:10267000302801D09DB113E014F8010B0127782810
:1026800003D0582801D045B10AE00DB1102D07D173
:102690000027102514F8010B02E0082500E00A25A8
:1026A0000026B0460EE005FB080005FB06F10127F9
:1026B00001EB10461FFA80F8B6F5803F00D3B9460B
:1026C00014F8010B294600F0EEF90028EBDABBF113
:1026D000000F05D00FB1641E00E05446CBF8004057
:1026E000B9F1000F06D000F013FA02210160C81EF4
:1026F000BDE8F09F48EA0640FAE710B5141E73F1F2
:10270000000408DA401C41F1000192185B411A43B1
:1027100001D120F0010010BD2DE9F04D92469B46FD
:1027200011B1B1FA81F202E0B0FA80F220329046A3
:1027300000F098F904460F4640EA0A0041EA0B010E
:1027400053465A46084313D0114653EA010019D0A4
:10275000C8F140025046FFF76CFF05460E46504652
:102760005946424600F07EF9084305D0012004E0B6
:1027700020463946BDE8F08D0020054346EAE07664
:102780002C4337430A986305E40AA0EB08000022B3
:10279000FD0A44EA47540A3002D500200146E9E721
:1027A000010510196941DDE9084500196941BDE8D5
:1027B000F04DA2E72DE9FE4F804681EA0300C00FED
:1027C0000C46009021F0004123F00045B8EB0200D8
:1027D000A94105D24046214690461C460B4602467A
:1027E00023F00040104347D0270DC7F30A00C3F37E
:1027F0000A510290401A019040286BDAC3F313008B
:1028000040F4801B0098924620B10023D2EB030ACB
:1028100063EB0B0B01985946C0F14002504600F0A3
:1028200021F906460D4650465946019A00F029F90D
:1028300010EB08006141002487EA115284EAE77333
:102840001A4340D0009A62B3019A012A4FEA075214
:1028500015DC001B61EB02014FF0004202EA075257
:10286000CDE90042001C41F5801132462B46FFF7AE
:1028700053FF03B0BDE8F08F40462146F9E7001B47
:1028800061EB0201001C41F5801300185B41201828
:10289000A2F5001747EB030140EAD570B6196D4168
:1028A00011E06D084FEA360645EAC0754FEA075257
:1028B000001B61EB0201001C41F5801149084FEA41
:1028C00030000019514132462B4603B0BDE8F04FAD
:1028D000FFF713BF0098012240000023D0EB020253
:1028E00063EBE073009821464FEAE074B8EB000018
:1028F00061EB0401E9E783F000435BE781F000410D
:1029000058E72DE9F04D81EA030404F0004B21F073
:10291000004514464FF0000A23F0004150EA05023A
:1029200020D054EA01021DD0C5F30A570246C5F370
:102930001303C1F31300C1F30A5640F4801543F4A6
:102940008013A7EB0608101BD64608F2FD3873EB80
:10295000050002D308F1010801E092185B41B8F1CB
:10296000000F03DA00200146BDE8F08D00204FF48F
:102970008011064684460EE0171B73EB050705D34E
:10298000121B63EB050306434CEA010C49084FEAAE
:10299000300092185B4150EA0107EDD152EA030082
:1029A00012D082EA040083EA0501084305D0101B17
:1029B000AB4106D20122002306E000224FF0004383
:1029C00002E06FF0010253101AEB06004CEB0851C5
:1029D00010EB0A0041EB0B01BDE8F04DFFF78DBE97
:1029E000C1F30A52C1F3130140F2FF3341F48011E5
:1029F0009A4202DA00200146704740F233439A427D
:102A0000A2F2334202DC5242FFF713BE00F02AB8B2
:102A100030B5041E71F1000404DB4FF00044404265
:102A200064EB0101141E73F1000405DB1C464FF03A
:102A30000043524263EB0403994208BF904230BD09
:102A4000064C074D06E0E06840F0010394E80700FB
:102A500098471034AC42F6D3FDF74EFB80390000A6
:102A6000A0390000202A04DB203A00FA02F10020FD
:102A700070479140C2F1200320FA03F319439040BC
:102A80007047202A06DBCB17203A41FA02F043EACE
:102A9000E07306E041FA02F3D040C2F12002914017
:102AA0000843194670473A2800D2303820F02002F7
:102AB000412A01D3A2F13700884201D34FF0FF3001
:102AC000704700000FB4084B10B504A902AA039880
:102AD00000F0E4F8044602A9002000F0D6FD2046EC
:102AE00010BC5DF814FB00008B36000037B51446AF
:102AF0000846064B6A46214600F030FA044669460D
:102B0000002000F0C7FD20463EBD000095360000C5
:102B1000004870474400002002E008C8121F08C1A6
:102B2000002AFAD170477047002001E001C1121F4E
:102B3000002AFBD1704700002DE9FF5FDDE902208C
:102B4000010DDDF838B0024318D044F61050A1F260
:102B5000FF3141430D140F98012820D0A5EB0B0045
:102B6000401C5FEA000A4FF00004474EDFF81C915A
:102B7000A046504616D5CAF1000728E00F98012458
:102B800043A2012808D0002100980F9BC0E9002132
:102B9000C0E90243BDE8FF9F6FEA0B01F4E7CBF108
:102BA0000000DEE7074612E0F80707D0224633466A
:102BB00040464946FFF75EFC80468946224633463A
:102BC00010461946FFF756FC04460E467F10002FAC
:102BD000EAD1DDE90201BAF1000F42464B4602DAC2
:102BE000FFF748FC01E0FFF78CFE04460E4600228A
:102BF000284BFFF70DFF03D84FF0FF30014607E0E9
:102C00000022254B20463146FFF7D4FDFFF7E8FEB2
:102C1000102409E0002C0ADB0A220023FFF7D8FC6D
:102C2000019B30321A55641E50EA0102F2D1641C35
:102C3000019AC4F1110314440F9A012A03D001220E
:102C400008430DD10AE0084304D000204FF0110BD7
:102C50000F9080E7A3EB0B056D1E0DE05B4504DDD7
:102C60004FF0000205F1010504E003DA4FF0000225
:102C7000A5F10105002AECD000980F99C0E90231B6
:102C8000C0E9004586E70000000024400000F03F56
:102C9000300000000000F0430000E03F2DE9FF4F4E
:102CA0008DB09B460F460446002606E025280BD033
:102CB0005A460F999047641C761C20780028F5D15D
:102CC00011B03046BDE8F08F0025A8460122984992
:102CD00000E0054314F8013F203B02FA03F00842EC
:102CE000F7D120782E2817D114F8010F45F00405EC
:102CF0002A280ED06FF02F022078A0F13001092988
:102D00000AD808EB880102EB410100EB0108641CC2
:102D1000F2E757F8048B641C20786C280DD004DC93
:102D20004C2812D06A2811D104E074280DD07A28DA
:102D30000CD10AE045F4001507E0617845F48015F0
:102D4000814202D1641C05F58015641C2278692A31
:102D500045D008DC002AB3D0582A69D0632A10D0A5
:102D6000642A08D13BE0702A67D0732A13D0752AF1
:102D70005CD0782A5CD010465A460F999047761C52
:102D8000D3E017F8040B8DF8000000208DF8010047
:102D9000E946012003E057F8049B4FF0FF30690734
:102DA0004FF0000501D40AE06D1C45450DDA85425F
:102DB000FADB19F805100029F6D106E06D1C8542F2
:102DC000FCDB19F805100029F8D12E4404E019F8AD
:102DD000010B5A460F9990476D1EF8D2A5E00A20C4
:102DE0000021CDE90801C5F3025002280DD001CF22
:102DF000C117031E71F100030DDA4FF0000CD0EB88
:102E00000C006CEB01012D2308E0FF1D27F00707E4
:102E1000F7E80201EDE72B0504D52B238DF82830C8
:102E200001233BE0EB0739D02023F7E70A2000E03D
:102E300010200021CDE9080107E01020002145F015
:102E40000405CDE908014FF00808C5F30250022837
:102E50000FD001CF00214FF0000A2B071FD5702A99
:102E60000DD0DDE908C38CF0100C5CEA030C0CD02B
:102E700015E0FF1D27F00707F7E80201EBE7402206
:102E80008DF828204FF0010A0BE050EA010306D02C
:102E900030238DF828308DF8292002239A46582AAD
:102EA00004D024A20DF120090B9209E026A2F9E733
:102EB000DDE90823FFF78CFB0B9B9B5C09F8013DC8
:102EC00050EA0102F4D1ADEB090020300890680708
:102ED00001D44FF001080899884502DDA8EB0100F4
:102EE00000E000208046002506E00AA85A46405D22
:102EF0000F9990476D1C761C5545F6DB04E0302099
:102F00005A460F999047761CB8F10001A8F10108C4
:102F1000F5DC05E019F8010B5A460F999047761C2D
:102F20000899481E08900029F4DC641CC5E60000DE
:102F3000092801003031323334353637383961628F
:102F40006364656600000000303132333435363753
:102F50003839414243444546000000002DE9FF4F07
:102F600095B09B468946064600250FE2252877D175
:102F700000242746F84A0121059400E0044316F88E
:102F8000013F203B01FA03F01042F7D130782A28A4
:102F900011D06FF02F033078A0F13002092A16D833
:102FA000059A44F0020402EB820203EB4202104451
:102FB000761C0590EFE759F8042B0592002A03DAF6
:102FC000504244F40054059044F00204761C3078DA
:102FD0002E2816D116F8010F44F004042A280DD02B
:102FE0006FF02F023078A0F13003092B09D807EBDE
:102FF000870302EB4303C718761CF3E759F8047BF9
:10300000761C30786C280FD006DC4C2817D0682846
:103010000DD06A2814D104E0742810D07A280FD17A
:103020000DE044F400140AE044F4801401E044F498
:1030300040147278824202D104F58014761C761C0A
:10304000307866280BD013DC582877D009DC0028AC
:1030500075D04528F6D04628F4D047281AD19DE1EE
:1030600018E0632835D0642879D0652812D195E11D
:10307000702873D008DC6728F1D069286FD06E28DB
:103080000DD06F2806D1B5E073282CD0752875D0E7
:10309000782874D05A46179990476D1C75E1C4F38F
:1030A0000250022809D003280DD0D9F800100428B6
:1030B0000DD00D6009F1040967E1D9F80010EA1795
:1030C000C1E90052F6E7D9F800100D80F2E70D7063
:1030D000F0E719F8041B8DF8001000208DF80100AE
:1030E000EA46012003E059F804AB4FF0FF306107D6
:1030F0004FF0000102D40DE008F101018846B94209
:103100000FDA8045F8DB1AF808100029F4D108E03E
:1031100008F1010188468142FADB1AF808100029FB
:10312000F6D105985B46A0EB080721463846179A6A
:1031300000F094FA284400EB080507E04DE029E18F
:103140000DE01AF8010B5A4617999047B8F101089B
:10315000F7D25B4621463846179A13E142E00A222D
:103160000092C4F302524FF0000A022A08D059F824
:1031700004CB032A4FEAEC710AD00DE029E02AE0E3
:1031800009F1070121F00702F2E802C1914609E0C6
:103190000FFA8CFC4FEAEC71042A03D14FFA8CFC35
:1031A0004FEAEC71002907DA0A460021DCF1000C35
:1031B00061EB02012D2202E0220504D52B228DF8BD
:1031C0000420012203E0E20701D02022F7E7904625
:1031D00059E00A2102E010220DE010214FF0000A10
:1031E00000910BE010224FF0000A44F0040408277D
:1031F000009203E008224FF0000A0092C4F302524A
:10320000022A05D059F804CB0021032A08D009E08E
:1032100009F1070121F00702F2E802C1914605E039
:103220001FFA8CFC042A01D10CF0FF0C4FF00008AF
:10323000220728D5702806D0009B83F0100353EA9C
:103240000A0305D00EE040228DF80420012208E098
:103250005CEA010206D030228DF804208DF80500CA
:1032600002229046009B83F0080353EA0A030AD126
:103270005CEA010201D1620705D530228DF80420F5
:103280004FF001087F1E582804D034A003900EA8E8
:1032900002900DE036A0F9E753466046009AFFF72A
:1032A00097F984460398825C0298401E029002704F
:1032B0005CEA0100F0D1029806A9081A00F1200A80
:1032C000600702D524F4803400E00127574502DD71
:1032D000A7EB0A0000E0002000EB0A01009005982F
:1032E0004144401A0590E00306D45B462146179AF4
:1032F000059800F0B3F90544002706E001A85A46F6
:10330000C05D179990476D1C7F1C4745F6DBE003B5
:103310000CD55B462146179A059800F09FF90544A5
:1033200004E030205A46179990476D1C0099481EBA
:1033300000900029F5DC08E0029802995A460078CE
:10334000491C0291179990476D1CBAF10001AAF12E
:10335000010AF1DC65E10000092801003031323357
:1033600034353637383961626364656600000000C1
:1033700030313233343536373839414243444546AB
:103380000000000000F058F90544761C3078002851
:103390007FF4ECAD19B02846BDE8F08F620700D489
:1033A000062709F1070222F0070CFCE80223E14698
:1033B00003F000485FEA080C02D00FF2702C0DE019
:1033C0005FEA045C02D50FF2682C07E05FEAC47C78
:1033D00002D00FF2602C01E0AFF2700C4FF0FF381A
:1033E00023F00043CDF850C065280CD006DC4528FA
:1033F00009D046281DD047283DD13DE0662818D089
:1034000067287ED138E00021112F01DB112000E078
:10341000781CCDE9000106A90EA8FFF78DFBDDE9B8
:103420000F010E9A03910021009207F1010A049105
:103430004DE04FF000400097CDE9011006A90EA81D
:10344000FFF77AFBDDE90F0203920E9B1199002230
:10345000DDF80CA00093049211B9791C00EB010A6D
:10346000B7EB0A0004D4C0F1FF3007F1010A049061
:10347000AAEB0700019044E0012F00DA01270021A8
:10348000112F01DD112000E03846CDE9000106A929
:103490000EA8FFF751FBDDE90F010E9A0391002101
:1034A00004910092BA4621070CD40399514500DAE1
:1034B0008A46BAF1010F05DD009AAAF10101515CBB
:1034C000302908D0B84202DA10F1040F06DA0121DF
:1034D000CDE9011015E0AAF10101E9E7002805DCBA
:1034E000049901440491AAEB000102E0411C5145FA
:1034F00000DD8A460499401A401C01904FF00040BC
:103500000290200704D40198504501DBCDF80480D7
:1035100000208DF84F0002980DF14F07B0F1004FD9
:1035200025D02B200E9002984FF0020800280CDACC
:10353000404202902D200E9007E00A210298FFF7EA
:1035400031F83031029007F8011DB8F10001A8F1FF
:103550000108F2DC02980028EFD1791E0E9808705D
:10356000307800F0200040F0450007F8020D12A866
:10357000C01B00F107081498007800B1012000EB8F
:103580000A01019801EBE07105984144401A401E80
:103590000590E00306D45B462146179A059800F093
:1035A0005DF805441498007818B15A461799904769
:1035B0006D1CE00324D55B462146179A059800F060
:1035C0004DF805441CE00498002807DBDDE9030101
:1035D000884203DD0098405C179901E0179930207C
:1035E0005A469047049805F10105401C0490019843
:1035F000401E019004D12E205A46179990476D1C09
:10360000BAF10001AAF1010ADDDC05E017F8010BAF
:103610005A46179990476D1CB8F10001A8F10108AE
:10362000F4DC5B462146179A0598ABE62D000000B6
:103630002B000000200000002DE9F0410446002589
:103640001E461746880404D405E039462020B047BA
:103650006D1C641EF9D52846BDE8F0812DE9F041C6
:10366000044600251E469046C80301D5302700E0D9
:103670002027880404D505E041463846B0476D1C34
:10368000641EF9D52846BDE8F0810A68531C0B601A
:10369000107070470A68531C0B601070704714005C
:1036A000000000000033007662218001C8200E0077
:1036B0000000FD000B371607400C000C0000100046
:1036C000C336101024F02A002F195E465F780000E0
:1036D00000000000000000000000000000001400D6
:1036E00000000000003300766221B82BEE0B700062
:1036F0000300FDC00B371607400C000C0000100043
:10370000C336101024F02A002F195E465F7800009F
:103710000000000000000000000000000000140095
:10372000000000000033007662210A0064410100BD
:103730000200FD000B371607400C000C00001000C3
:10374000C336101024F02A002F195E465F7800005F
:103750000000000000000000000000000000004029
:103760004040404040404040414141414140404054
:103770004040404040404040404040404040400584
:1037800002020202020202020202020202020220FB
:1037900020202020202020202002020202020202FB
:1037A0009090909090901010101010101010101019
:1037B000101010101010101010100202020202025D
:1037C0008888888888880808080808080808080879
:1037D0000808080808080808080802020202400051
:1037E0005F3700000A7061636B6574206E756D62EF
:1037F0006572206973206C657373207468616E2034
:1038000065787065637465642C2073776974636888
:103810006564206F72646572203F2064696666206B
:103820002564206F6620736C617665202564202CEA
:103830002070726F6261626C7920506B7447656EA4
:10384000657261746F722077617320726573746141
:10385000727465643F2300000A7061636B657420B5
:103860006E756D626572206973206C657373207468
:1038700068616E2065787065637465642C20737769
:10388000697463686564206F72646572203F2064A8
:10389000696666202564206F6620736C61766520FA
:1038A000256423000A6E756D626572206F66207054
:1038B00061636B6574206973206F776572666C6FE6
:1038C00077656420616E6420617265206D69737331
:1038D000696E67202564207061636B657473206F67
:1038E0006620736C61766520256423000A6E756D11
:1038F000626572206F6620736C61766520696E2048
:103900007061636B657420697320256420616E6447
:103910002069732068696768657220617320746F1D
:1039200074616C206E756D626572206F6620736CB9
:103930006176657320256423000000000A737461BA
:103940007469737469637320776173203A20256406
:10395000206F6620726563656976656420706163B7
:103960006B65747320616E64202564206F66206D22
:10397000697373696E67207061636B65747323008C
:10398000A03900000000002048000000182B0000B3
:10399000E839000048000020B8310000282B000062
:1039A0000000000000000001000000000000000016
:1039B0000000000000000000000000000000000007
:1039C00000000000000000000000000000000000F7
:1039D000009600000101000000000000000000004F
:1039E0000000000000000000FFFFFFFFFFFFFFFFDF
:1039F000FFFFFFFFFFFFFFFFFFFFFFFFFFFFFFFFD7
:103A0000FFFFFFFFFFFFFFFFFFFFFFFFFFFFFFFFC6
:103A1000FFFFFFFFFFFFFFFFFFFFFFFFFFFFFFFFB6
:103A2000FFFFFFFFFFFFFFFFFFFFFFFFFFFFFFFFA6
:020000021000EC
:10FFF000FFFFFFFFFFFFFFFFFFFFFFFFFFFF51219D
:04000003000000F108
:00000001FF
