:020000020000FC
:1000000000320020CD180000D51800001F090000A4
:10001000D9180000DB180000DD1800000000000007
:10002000000000000000000000000000DF180000D9
:10003000E118000000000000E3180000E5180000CF
:10004000E7180000E7180000E7180000E7180000B4
:10005000E7180000E7180000E7180000E7180000A4
:10006000E7180000FF150000E7180000E71800007F
:100070009B080000F3080000E7180000E7180000E4
:100080002D090000E7180000E7180000E71800003D
:10009000E7180000E7180000E7180000E718000064
:1000A000E7180000E7180000FD0800001309000031
:1000B000E7180000E7180000E7180000E718000044
:1000C000E7180000E7180000E7180000E718000034
:1000D000E7180000E7180000E7180000E718000024
:1000E000E7180000E7180000E7180000E718000014
:1000F000DFF80CD002F072F900480047AF070000AB
:100100000032002010B5002807DA4A07140EFE4A14
:1001100000F00F031B1FD45403E04A07130EFB4AE1
:10012000135410BD2DE9F041F9480578681CC5B29B
:10013000022D00DB0025F74830F81560C5EB0510EF
:10014000F54901EB0018F548007841F2D521484304
:10015000F349084400F5805090F8D442142C32DA68
:10016000EE48007841F2D5214843ED490844C4EBFC
:10017000041100EB0110C71C32464146384601F01D
:1001800053FEE648007841F2D5225043E44A104439
:1001900000F596500655E148007841F2D5214843D4
:1001A0001146084400F5805090F8D402401CC1B2BA
:1001B000DA48007841F2D5225043D94A104400F57C
:1001C000805080F8D4120020D6490870BDE8F08134
:1001D00010B5002303224FF41651184601F024FDF8
:1001E0000921D14801F084FB0121002001F047FDE5
:1001F000102000F02AFCC6480078401CC449087052
:1002000008460078C0EB0010C34901EB0010C74955
:10021000086010BD10B51021C348903001F068FB94
:100220000421C148903001F06EFB10BD10B5C048EC
:10023000007820B9022000F09EFEBD490870BC483D
:10024000007820B9BB4800F020FFB9490870B848D1
:10025000007810B9012000F042FFB548007828B9B5
:100260000F21002001F007F8B1490870B04800786C
:1002700020B9002000F071FFAD490870AC4800784B
:1002800010B9002000F04CFF10BD70B504460D46BB
:1002900001221146022001F0BFFB2246294602201E
:1002A00001F0D4FB1021002001F0FEFC70BD0FB462
:1002B00010B5C2B045A8019002A8019A449902F075
:1002C000C9F884B2214602A8FFF7DFFF00200190A1
:1002D000204642B010BC5DF814FB70B504460D46D4
:1002E0009348007840B92146284600F082FF9049A3
:1002F00008700020904908708D48007850B905E0DA
:1003000088480078012801D1FFF70CFF00F0B0FF0A
:100310000028F5D08648007830B901F094F8844977
:10032000087001208449087070BD0FB410B5C2B0C8
:1003300045A8019002A8019A449902F08BF8C4B232
:10034000F02C05DD0020019042B010BC5DF814FBDC
:10035000601CC1B202A8FFF7C0FF00200190204638
:10036000F2E710B500247248007848B97248007866
:1003700030B901F068F86E49087001206E490870C4
:100380006B480078C8B96C480078012815D10DE099
:10039000601C84B241F65830844201DD002010BD5B
:1003A00060480078012801D1FFF7BCFE01F06BF82E
:1003B0000028EDD00020604908705D48007838B909
:1003C0005E4B5F4A5F49FF2001F098F8584908707A
:1003D0005748007848B95848007830B901F033F8E8
:1003E000534908700120544908700120D7E710B51F
:1003F000044621464FF0804001F0E8FB982302229A
:100400000021500701F0D0FB00BF4FF0804001F009
:10041000F5FB00F040000028F7D10121880701F02A
:10042000F0FB00BF4FF0804001F0E8FB00F08000DF
:100430000028F7D10C2000F008FB10BD70B5002497
:10044000012041490870102000F00AFB3348007871
:10045000401C324908703D480078401C3B490870F8
:100460002E480078022803DB00202C49087006E0A3
:1004700036480078022802DB002034490870002149
:100480002648007841F2D5225043254A104400F511
:10049000805080F8D412102000F0D7FA2DE02B48BD
:1004A000007841F2D52148431D490844C4EB0411AA
:1004B00000EB01152548007841F2D5214843184941
:1004C000084400F5805090F8D4023030A87004F150
:1004D00031006870312028701C48007841F2D52224
:1004E00050430A46104400F59650005DC01CC1B24E
:1004F0002846FFF7F2FE601CC4B2134800780128BA
:1005000031D11248007823E018ED00E000E400E06B
:100510000600002008000020FD2600200400002026
:10052000470100201A000020306000401000002029
:100530000000002080520C35150000200200002031
:1005400048000020010000201900002005000020C4
:1005500041F2D5214843FE49084400F5805090F807
:10056000D402A0429BDC0020FA490870204670BDEE
:1005700010B588B003240120F7490870F74901A895
:1005800001F091FC1AE0F64A127841F2D5235A4361
:10059000EF4B1A44C4EB041302EB0310F04A127839
:1005A00041F2D5235A43EA4B1A4402F59652125DA2
:1005B000D21CD1B2FFF791FE601CC4B201A8005D4D
:1005C00038B1E5480078012803D1E64800780028D2
:1005D000D9D0E01EC0B208B010BD10B50521102062
:1005E000FFF790FD06211B20FFF78CFD07211A2045
:1005F000FFF788FD09210D20FFF784FD08210C205D
:10060000FFF780FD04210920FFF77CFD10BD10B528
:10061000D54801F0DEF900F0400008B1002010BD1F
:100620000120FCE7D149C1F805007047CF48D0F858
:100630000500CF494843CF490844CC49C1F80500DB
:10064000C0F30E40704730B500231AE0047830251F
:1006500005EB14140C700C78392C02DD0C78E41DB9
:100660000C70491C047804F00F0430340C700C78C2
:10067000392C02DD0C78E41D0C70491C401C5C1CFC
:10068000A3B29342E2DB24240C7030BD70B5002489
:1006900001251B2000F0E4F9002551E0B648007860
:1006A00041F2D5214843AA490844C5EB051100EBA6
:1006B0000116032412E0AD48D0F80100401CAB49FC
:1006C000C1F80100FFF7B2FF00B2A849A1F8090084
:1006D00031190B22A548FFF7B6FF1734D52CEADBFA
:1006E000E01EC2B2A448007841F2D521484398499F
:1006F000084400F59650A049097841F2D5235943A2
:10070000934B194401F5805191F8D41242549A4800
:10071000007841F2D52148431946084400F580503D
:1007200090F8D402401CC1B29348007841F2D5221F
:1007300050431A46104400F5805080F8D4126D1CC6
:10074000142DABDB0120834908701B2000F07DF9DC
:1007500070BD00B524208549C872012008700020B2
:10076000C1F80100C1F80500A1F809004FF4FA70C2
:10077000FFF758FF00BD10B501F020FB4FF400312A
:10078000002001F03BFB044644B97CA001F05AFE76
:1007900004217548C03001F027F907E07DA001F081
:1007A00051FE04217048C03001F01AF910BD42F228
:1007B000AA51674801F051FB002001F0A7FAFFF7AA
:1007C0000CFFFFF705FDFFF7D6FFFFF723FDFFF74F
:1007D000C0FFFFF72BFD5FE0FFF7C3FD00283BD014
:1007E00004216148C03001F0FFF873A15B4801F0BB
:1007F0003FFBA8B90120724908705F48007841F2B8
:10080000D52148435249084400F5805090F8D4025D
:1008100010B1FFF713FE03E004216AA0FFF75DFDAE
:10082000032269A14D4801F031FB08B9FFF7A0FE92
:10083000042266A1494801F029FB90B9474909798A
:10084000303901EBC10202EB01114FF6FF7202EAEF
:10085000C100FFF7CCFD04E004214348C03001F0A3
:10086000BFF8FFF7D4FEB8B15A480078012805D187
:100870003848007810B9FFF709FF0DE055480078B7
:1008800050B90120534908704FF4FA70FFF7CAFEBF
:1008900000203649C1F801009EE710B54FF08040B6
:1008A00001F0ACF9012823D12F48C03001F091F8B4
:1008B00000F0040028B104212B48C03001F094F866
:1008C00016E004212848C03001F08AF800230222F3
:1008D0001946500701F068F900BF4FF0804001F061
:1008E0008DF900F040000028F7D10C2000F0B8F896
:1008F00010BD10B5384801F081F910BD10B52021A8
:10090000002001F0D1F900221146022001F084F804
:1009100010BD10B50021084601F0C6F910BD10B594
:1009200004211148C03001F05FF810BD10B500205F
:1009300001F0A1F9C4B22948006804702848008871
:10094000401C2749088025480068401C234949E08D
:100950004701002018000020190000204800002056
:10096000050000201600002000600040F126002055
:10097000FD430300C39E2600040000200A696E7434
:1009800065677269747920636865636B206F6B2398
:10099000000000000A70726F626C656D20696E2045
:1009A000696E74656772697479206F662066697212
:1009B0006D7761726520230031736C6F74000000E5
:1009C0001B000020313030003152450053594E4356
:1009D0000000000003000020000400401000002080
:1009E0000C0000200860242C03D022480088F02846
:1009F0002ADB20480088D52803DA1F480078012820
:100A000022D11C4800881D491D4A127821F8120085
:100A10001B480078401C1A490870084600780228D4
:100A200001D10020087016480078C0EB001015496D
:100A300001EB00101449086000200E4908800E499F
:100A4000087001201149087010BD00F01F0201213B
:100A500091404209920002F1E022C2F80011704771
:100A600000F01F0201219140094A430942F8231076
:100A7000704700000C0000201B0000200800002030
:100A800006000020FD260020100000201A00002093
:100A900080E100E070B504460D460A2C0BD100BF82
:100AA000002001F0DFF800F020002028F8D10D210F
:100AB000002001F0DBF800BF002001F0D3F800F0C7
:100AC00020002028F8D12146002001F0CFF8204650
:100AD00070BD01460020704710B50446002001F0AB
:100AE000CAF810BD01464FF0FF30704710B50446FC
:100AF0002146002001F0BAF810BD00BFFEE700005B
:100B00000146002011B14FF480720A60704702461E
:100B100000204FF040231A7200BF4FF040231B8883
:100B200003F4E063002BF8D021B14FF040231B7990
:100B30000B7002E04FF040231B79704738B5054633
:100B40000024092000F05BFE0820F849087024B951
:100B50000021FF20FFF7DBFF044624B96946FF2090
:100B6000FFF7D5FF04460820F049091F0870092047
:100B700000F03AFE2CB925B19DF8000000F01F00EE
:100B80002870204638BD38B50446002500BF6846A9
:100B9000FFF7D4FF05461DB99DF80000A042F6D12D
:100BA000284638BD70B504460D460026092000F0E1
:100BB00026FE0820DD49087005E014F8010B00212D
:100BC000FFF7A5FF0646281EA5F10101CDB201D011
:100BD000002EF2D00820D549091F0870092000F026
:100BE00003FE304670BD38B50446009401216846C6
:100BF000FFF7D8FF38BD38B500241CB96846FFF7A9
:100C00009DFF04462FE09DF8000020B113280ED070
:100C1000142817D100E020E01CB9B120FFF7E3FF52
:100C200004461CB91220FFF7AEFF044615E01CB9BC
:100C3000B120FFF7D8FF04461CB91220FFF7A3FF2D
:100C400004460AE01CB9B120FFF7CDFF04461CB9E9
:100C50001220FFF798FF044600BF00BF1CB968468A
:100C6000FFF76CFF04469DF80000122801D0002C0D
:100C7000C9D0204638BD38B5002400BF092000F097
:100C8000BEFD0820A949087024B90021FF20FFF704
:100C90003EFF044624B96946FF20FFF738FF0446AB
:100CA0000820A249091F0870092000F09DFD2CB9F9
:100CB0009DF8000000F0200000B101E0002CDDD024
:100CC00000BF204638BD38B505460024009514B94C
:100CD000FFF7D1FF044624B901216846FFF762FF00
:100CE0000446204638BD2DE9F04105460F4616461C
:100CF0000024092000F083FD08208C4908703CB9CD
:100D0000C5F3022141F018000021FFF700FF04465F
:100D100024B9E8B20021FFF7FAFE044605E016F810
:100D2000010B0021FFF7F3FE0446381EA7F101076F
:100D300001D0002CF3D008207C49091F087009203D
:100D400000F052FD2046BDE8F08138B500241CB902
:100D50006846FFF7F3FE04462FE09DF8000020B13F
:100D600013280ED0142817D100E020E01CB9B120C0
:100D7000FFF739FF04461CB91220FFF704FF0446B1
:100D800015E01CB9B120FFF72EFF04461CB9122054
:100D9000FFF7F9FE04460AE01CB9B020FFF723FF75
:100DA00004461CB91120FFF7EEFE044600BF00BF49
:100DB0001CB96846FFF7C2FE04469DF800001128E2
:100DC00001D0002CC9D0204638BD10B5002414B97C
:100DD000FFF7BBFF04462CB9554A40218800FFF7B6
:100DE00082FF04461CB9BB20FFF76DFF044614B90F
:100DF000FFF701FF0446204610BD38B500244D48DA
:100E0000007800B30020009034B96A46012140F216
:100E1000FA30FFF768FF04460420009034B96A46B0
:100E2000012140F22E30FFF75EFF044600200090C3
:100E30002CB96A4601210D20FFF755FF044600201A
:100E40003C49087000BF3C48007830B1FFF7BDFF57
:100E5000044614B9002038490870204638BD70B5E2
:100E60000446002501203449087024B1012C0CD01F
:100E7000022C1DD113E0402230492D4800F0D4FF50
:100E80004FF47A702E49086014E040222D4928481A
:100E900000F0CAFF4FF41640294908600AE04022DA
:100EA0002949234800F0C0FF28482549086001E08F
:100EB000022500BF00BF284670BD70B5054600245E
:100EC00014B9FFF742FF04461CB92846FFF7C7FFD5
:100ED000044614B9FFF791FF044614B9FFF78BFEDF
:100EE0000446204670BD10B500241CB9A220FFF7AF
:100EF000EAFE044614B9FFF7BEFE0446204610BDC4
:100F0000002000210822094B1A7000E0491C104AF9
:100F1000126812B9B1F57A7FF8DBB1F57A7F00D1AA
:100F200001200822014B1B1F1A707047806000408F
:100F3000DD2800203100002030000020D82D0000E6
:100F400034000020582D0000982D0000E09304008C
:100F5000800E0C4238B50024C820FFF744FE04463A
:100F60004FF48050009000BF0098411E009100286F
:100F7000FAD1204638BD70B505460024092000F09E
:100F80003EFC4FF4C250FE4908800820FC496039FD
:100F900081F864000020FB49086001204FF04021E7
:100FA000888143F243000882432008820820F449E4
:100FB0001C31087014B9FFF7CDFF04460B20F2492D
:100FC00008808815F04908310880092001218140F6
:100FD000EE4A430942F8231000BF0021002807DA37
:100FE0004A07160EEA4A00F00F031B1FD65403E00F
:100FF0004A07130EE74A135400BF092000F0F4FB20
:1010000014B9FFF77DFF044614B9FFF76CFF0446DF
:1010100014B9FFF79AFE04461CB92846FFF71FFFD4
:10102000044614B9FFF7E9FE044614B9FFF7E3FDDF
:101030000446204670BD10B50024092000F0DFFBF7
:101040004FF4C250CE4908800820CD49603981F85C
:1010500064000120CB4908604FF04021888143F2B1
:1010600043000882432008820820C5491C310870CB
:10107000C820FFF7B8FD0446204610BD10B5002477
:10108000FFF7B9FD0446204610BD2DE9F047814623
:101090004FF0000A0120C0490870484600F07EFF6A
:1010A0000746BE4ABE4B00F007FF054600F083FF2F
:1010B0000446BC494C72200A8872200CC872BA4897
:1010C000814504D3072048761620087604E00320E3
:1010D000B4494876082008765046BDE8F08730B518
:1010E00002460020AF4C637D12B1012A04D101E019
:1010F000002103E0082101E0022000BF00BF70B919
:10110000A84C647D24F0380444EA0103A54C647DB6
:101110009C4204D00124A04D2C70A24C637530BDBC
:1011200010B5024600209F4B197F12B1012A06D14B
:1011300002E021F0400104E041F0400101E0022022
:1011400000BF00BF40B9974B1B7F8B4204D00123E7
:10115000914C2370934B197710BD10B502460020B7
:10116000904B197F12B1012A06D102E021F008014B
:1011700004E041F0080101E0022000BF00BF40B9D7
:10118000884B1B7F8B4204D00123834C2370854BFB
:10119000197710BD70B505460E460024002083491E
:1011A0000870F02D00DD042414B9FFF724FD044677
:1011B0002CB9324629461020FFF795FD04464CB95C
:1011C000784880F8275090F8260040F04000754994
:1011D00081F8260014B9FFF710FE044614B9FFF792
:1011E0000AFD04461CB9B520FFF76DFD04462046F4
:1011F00070BD73B50D46002400206C4908709DF841
:101200000000401CC0B200909DF80000F02800DDF6
:10121000042414B9FFF7EFFC04462CB96A460121F7
:101220001020FFF760FD04463CB99DF80000411E08
:101230002A461120FFF757FD044654B9F0205949BA
:1012400081F82700084690F8260020F0400081F839
:10125000260014B9FFF7D1FD044614B9FFF7CBFC03
:1012600004461CB9B520FFF72EFD044620467CBD80
:101270004E48007870472DE9F04104460A460020A8
:10128000002114B1012C05D102E041F0800103E0FE
:1012900000BF01E0022000BF00BF002846D1102A95
:1012A00041D2DFE802F008090A0B0C0D0E0F1011F5
:1012B00012131415161700BF00BF00BF00BF00BFF8
:1012C00000BF00BF00BF00BF00BF00BF00BF00BF26
:1012D00000BF00BF41EAC20C0CF0FF014FF0030C4D
:1012E0000CEB8207DFF8C8C0DCF800C04FF06408E0
:1012F000BCFBF8F840F6C41C07FB0CFCBCFBF8F682
:1013000001231D0207E05B1C4FF4007C4CFA03F53F
:10131000072B00D301E0B542F5D800BF03F0FF0C66
:101320004CEA010101E0022000BF00BF78B9DFF8FC
:1013300074C09CF814C08C4509D04FF0010CDFF844
:10134000588088F800C0DFF85CC08CF81410BDE845
:10135000F08138B500240320009014B9FFF74DFD4B
:10136000044601201349087014B9FFF744FC0446F1
:101370002CB96A4601210D20FFF7B5FC04461BE09D
:1013800060600040100D0C422824004080E200E024
:1013900018ED00E000E400E030000020AFC0EE13E4
:1013A0001DA6643FDD280020801361333800002033
:1013B00034000020310000201CB9B520FFF783FC69
:1013C0000446204638BD38B500240220009014B9E8
:1013D000FFF713FD044614B9FFF70DFC0446012086
:1013E000F84908702CB96A4601210D20FFF77BFCF3
:1013F00004461CB9B520FFF766FC0446204638BDFC
:1014000070B5054600240020EF490870F02D00DD7E
:1014100004244CB9ED4880F8275090F8260040F09D
:101420004000EA4981F8260014B9FFF7E6FC0446BB
:1014300014B9FFF7E0FB04461CB9B220FFF743FCE8
:101440000446204670BD10B500240020DE49087017
:1014500054B9F020DD4981F82700084690F82600AD
:1014600020F0400081F8260014B9FFF7C6FC0446BE
:1014700014B9FFF7C0FB04461CB9B220FFF723FCE8
:101480000446204610BDD048007870472DE9F04151
:1014900005460E4617460024092000F0B0F9082042
:1014A000CB4908703CB9C5F3022141F03800002156
:1014B000FFF72DFB044624B9E8B20021FFF727FB14
:1014C000044624B90021FF20FFF721FB044605E074
:1014D00039467F1CFF20FFF71AFB0446301EA6F199
:1014E000010601D0002CF3D00820B949091F08706B
:1014F000092000F079F92046BDE8F0812DE9F84394
:1015000005460C4690461E460027FFF7BCFF002804
:1015100047D0AE4890F8260000F04000B0B11CB1B2
:10152000AA4890F827002070A84890F8270000905B
:101530009DF80000A84200DD009527BB42469DF8BB
:1015400000101020FFF7A2FF07461CE02FB96A46E3
:1015500001211020FFF79AFF07469DF80000401E6A
:10156000C0B2009014B19DF8000020709DF80000FA
:10157000A84200DD009537B942469DF800101120C1
:10158000FFF784FF07465EB137B93246012140F2CA
:101590001230FFF77BFF074630786B3840B230706F
:1015A00002E00CB1002020703846BDE8F88338B561
:1015B000002440F2E1708749088014B9FFF71DFC50
:1015C000044601207F490870A020009034B96A4683
:1015D000012140F2FA30FFF786FB0446002000901C
:1015E00034B96A46012140F22E30FFF77CFB0446F5
:1015F0001CB9B220FFF767FB0446204638BD1CB576
:10160000002434B901AA012140F23630FFF73EFF31
:10161000044634B96A46012140F23730FFF736FFFD
:1016200004469DF8040000F0100010B101206A4942
:1016300008709DF8040000F0040010B10120624918
:10164000087034B901AA012140F23630FFF74BFB94
:10165000044634B96A46012140F23730FFF743FBB4
:1016600004464FF480705D4908801CBD70B5054686
:10167000002414B9FFF7C1FB044614B9FFF7BBFA05
:1016800004461CB9BC20FFF71EFB044614B9FFF743
:101690002AFC04465DB134B92A46012140F21230D9
:1016A000FFF7F4FE044628786B3840B228702046D5
:1016B00070BD2DE9F843044600264448007D0090A3
:1016C0004248007D00F0800010B18020009001E0D1
:1016D00000200090002E45D1102C40D2DFE804F00D
:1016E00008090A0B0C0D0E0F101112131415161702
:1016F00000BF00BF00BF00BF00BF00BF00BF00BFF2
:1017000000BF00BF00BF00BF00BF00BF00BF9DF80B
:10171000000040EAC400C0B20090032000EB84093E
:101720002F4800686421B0FBF1F140F6C41009FBBA
:1017300000F0B0FBF1F801252F0207E06D1C4FF41B
:10174000007040FA05F7072D00D301E04745F5D8B2
:1017500000BFE8B29DF800100843009001E00226A7
:1017600000BF00BF8EB91948007D9DF80010884267
:101770000BD036B96A46012140F20730FFF7B3FAC1
:1017800006469DF80000114908753046BDE8F8830B
:1017900010B500241CB9C820FFF795FA0446FFF7DE
:1017A000D9FB08200A49087000BF0E4800680028CD
:1017B000FBD01CB91120FFF7E6F904460CB9FFF77E
:1017C0005AFA10BD3100002039000020DD28002029
:1017D0008060004024880040380000203024004011
:1017E00034000020800E0C4200F01F0201219140C5
:1017F0004209920002F1E022C2F80011704700F0A5
:101800001F0201219140024A430942F82310704708
:1018100080E100E02748008800F0180030B1082877
:1018200008D010280BD0182813D10DE022482349E6
:1018300008600EE04FF400402049086009E04FF4D2
:1018400000401E49086004E01D4800681B4908600C
:1018500000BF00BF1748008800F007010120884042
:1018600016490968B1FBF0F016490860704700B5E9
:1018700000201049088014490870FFF7CBFF00BD15
:101880000F49086070470E480068704700B502466F
:1018900072B60848008820F007000649088008460C
:1018A00000881043088062B6FFF7B4FF00BD05480A
:1018B00000687047002000400024F4003C00002035
:1018C00044000020400000201024004006488047CB
:1018D00006480047FEE7FEE7FEE7FEE7FEE7FEE715
:1018E000FEE7FEE7FEE7FEE76F180000F1000000EC
:1018F000024611800120704710B504462171227202
:101900002373012010BD0246117101207047024669
:101910001172012070470246117301207047014681
:10192000FF200873087108760120704730B5034620
:1019300014461A884D000320A8404FF6FF75281A58
:101940000240480004FA00F0104482B21A800120DC
:1019500030BD10B5034614461A7901208840C0F105
:10196000FF00024004FA01F0104482B21A71012013
:1019700010BD10B5034614461A7A01208840C0F104
:10198000FF00024004FA01F0104482B21A720120F2
:1019900010BD10B5034614461A7B01208840C0F1E3
:1019A000FF00024004FA01F0104482B21A730120D1
:1019B00010BD02460B460120984081B2107B0843BF
:1019C0001073107908431071107E084310760120BF
:1019D00070470146087D704702461176107E7047B9
:1019E00002461177107F7047024682F8201092F865
:1019F00020007047024682F8241092F824007047B5
:101A000010B54FF400715E4800F027FA5C485D495C
:101A100088600120486010BD10B5034651B1012017
:101A20009840584C606201209840A0620120984084
:101A3000A06309E001209840524C206201209840A8
:101A4000E06201209840E063012010BDFFB503462D
:101A50000E2B71D2DFE803F007121E29343F4B57DB
:101A600088888863717C5018401E00904648019019
:101A7000481E464C04EB0010029076E04248001FDE
:101A800000905018401E0190481E414C04EB00107D
:101A900002906AE05018401E00903E480190481E97
:101AA0003A4C04EB001002905FE03A480090501866
:101AB000401E0190481E364C04EB0010029054E08A
:101AC0005018401E009034480190481E2F4C04EBE3
:101AD0000010029049E03048001F00905018401E4E
:101AE0000190481E2A4C04EB001002903DE0501873
:101AF000401E0090284828380190481E234C04EBD3
:101B00000010029031E024482C3800905018401EFC
:101B10000190481E1E4C04EB0010029025E01F4867
:101B20000090481E022404FB00200190481E1C4C1B
:101B300004EB0010029018E016E05018401E0090D0
:101B400018480190481E114C04EB001002900CE064
:101B50001448001F00905018401E0190481E0C4C65
:101B600004EB0010029000E000BF00BF044800EB4F
:101B700003109DE8F000F0C0012004B0F0BD0000AB
:101B8000002A00200000014008440040010000C07D
:101B90000100000C00500040343000400C000540B3
:101BA0000100005D0840004030B504460D46A08BA2
:101BB00000F0400008B1002030BD208900F47061C1
:101BC00029431143194321810120F5E70246118081
:101BD000012070470146888870470146088A70478F
:101BE0000246908B00F0400008B100207047108939
:101BF00020F470630B4313810120F7E70146888BC3
:101C0000704702469181012070470146B1F1804F33
:101C100002D103480068704702480068FBE70000F3
:101C2000980300429883004270B505462D4890FB0A
:101C3000F1F42D4E3485C00290FBF4F090FBF1F0EE
:101C4000A0F5006080B240F40840B08400203071FC
:101C500003F07C0002F003063043234E307330461D
:101C6000007D70BD01462048007D704702461E4B36
:101C700019700120704701461B48007870470246E2
:101C8000194B19710120704701461748007A7047B7
:101C900010B503460AB1144C21741348007E10BDE0
:101CA00001461148007E704710B503460E48007982
:101CB00020F030020A430C4C2271012010BD024674
:101CC00031B90948007B00F03F00074B187305E06D
:101CD0000548007B40F04000034B18730248007D2C
:101CE0007047000020A107000050004030B50346B7
:101CF0000C461648008800F0200141F040011943CD
:101D000021431143114D2980012030BD014619B9ED
:101D100000200F4A106002E001200D4A10600120EF
:101D200070470146094A083A118001207047074868
:101D3000001F008870470548103000887047014632
:101D4000024A121D118001207047000088250040C2
:101D500014B1044230B50246002000230AE002F02C
:101D6000010424B14C1EE51A0124AC402043520862
:101D70005C1CE3B28B42F2DB30BD30B502460B4651
:101D80004FF6FF70002116E0555C80EA052008241C
:101D90000EE000F400452DB141F2210585EA400531
:101DA000A8B203E04FF6FF7505EA4000651EECB2ED
:101DB000002CEEDC491C9942E6DB30BD00211AE024
:101DC0004FF6FF7303EA012008220EE000F40043FF
:101DD0002BB141F2210383EA400398B203E04FF6AE
:101DE000FF7303EA4000531EDAB2002AEEDC0D4B0B
:101DF00023F81100491CFF29E2DD704730B5024687
:101E00000B464FF6FF70002109E0555C85EA20245F
:101E1000044D35F8145085EA0025A8B2491C9942B2
:101E2000F3DB30BD002C002040EA01039B0703D008
:101E300009E008C9121F08C0042AFAD203E011F809
:101E4000013B00F8013B521EF9D27047D2B201E0CB
:101E500000F8012B491EFBD270470022F6E710B5AF
:101E600013460A4604461946FFF7F0FF204610BD08
:101E700010B5002200E0521C835C8C5CA34201D1AF
:101E8000002BF8D1D8B2E1B2401A10BD30B50446EB
:101E90000020034600E05B1C934203D2E05CCD5C73
:101EA000401BF8D030BD034611F8012B00F8012B80
:101EB000002AF9D1184670472DE9FE4F81EA030444
:101EC00004F0004421F0004100944FF0000B23F097
:101ED000004350EA01045ED052EA03045BD0C3F32E
:101EE0000A54C1F30A552C44A4F2F3340194A0FB24
:101EF0000254C1F3130141F48011C3F3130343F4FB
:101F0000801301FB024400FB034E840A970A44EA53
:101F1000815447EA8357A4FB076802958D0A05FBA5
:101F200007854FEA932C04FB0C542705029D4FEACA
:101F3000065847EA1637B5EB08056EEB070C870E17
:101F4000920E47EA811742EA8312A7FB0201B6EB21
:101F50000B0164EB00042B0D43EA0C335E1844EBD9
:101F60001C50DA465146E7FB0201C5F313044FEA61
:101F70000B3343EA14534FEA0432019C43EA06034D
:101F8000A4F10C040294009CCDE900B400F092F896
:101F900003B0BDE8F08F00200146F9E70EB540F22E
:101FA000334102910021CDE900110A460B4600F0B1
:101FB00081F803B000BDC1F30A5210B5C1F313019B
:101FC00040F2FF3341F480119A4201DA002010BD43
:101FD00040F233439A42A2F2334203DC524200F011
:101FE0004AF810BD904010BD30B50B4601460020A8
:101FF0002022012409E021FA02F59D4205D303FACB
:1020000002F5491B04FA02F52844151EA2F101024B
:10201000F1DC30BD2DE9F05F0546002092469B467D
:1020200088460646814640241BE0284641464746EE
:10203000224600F020F853465A46C01A914110D368
:1020400011461846224600F0DBF92D1A67EB01080D
:102050004F4622460120002100F0D2F917EB00097B
:102060004E41201EA4F10104DFDC484631462A46D9
:102070004346BDE8F09F202A04DB203A21FA02F013
:102080000021704721FA02F3D040C2F120029140B2
:1020900008431946704710B5141E73F1000408DA9E
:1020A000401C41F1000192185B411A4301D120F01C
:1020B000010010BD2DE9F04D92469B4611B1B1FAD9
:1020C00081F202E0B0FA80F22032904600F098F9F6
:1020D00004460F4640EA0A0041EA0B0153465A46BD
:1020E000084313D0114653EA010019D0C8F1400249
:1020F0005046FFF7C0FF05460E4650465946424639
:1021000000F07EF9084305D0012004E0204639465E
:10211000BDE8F08D0020054346EAE0762C433743C6
:102120000A986305E40AA0EB08000022FD0A44EACD
:1021300047540A3002D500200146E9E7010510198D
:102140006941DDE9084500196941BDE8F04DA2E7A4
:102150002DE9FE4F804681EA0300C00F0C46009037
:1021600021F0004123F00045B8EB0200A94105D25F
:102170004046214690461C460B46024623F000404E
:10218000104347D0270DC7F30A00C3F30A5102904A
:10219000401A019040286BDAC3F3130040F4801B0F
:1021A0000098924620B10023D2EB030A63EB0B0B9D
:1021B00001985946C0F14002504600F021F9064608
:1021C0000D4650465946019A00F029F910EB0800D7
:1021D0006141002487EA115284EAE7731A4340D030
:1021E000009A62B3019A012A4FEA075215DC001BDC
:1021F00061EB02014FF0004202EA0752CDE90042D2
:10220000001C41F5801132462B46FFF753FF03B007
:10221000BDE8F08F40462146F9E7001B61EB020163
:10222000001C41F5801300185B412018A2F500172F
:1022300047EB030140EAD570B6196D4111E06D0816
:102240004FEA360645EAC0754FEA0752001B61EBBC
:102250000201001C41F5801149084FEA30000019C5
:10226000514132462B4603B0BDE8F04FFFF713BF94
:102270000098012240000023D0EB020263EBE073E0
:10228000009821464FEAE074B8EB000061EB0401CE
:10229000E9E783F000435BE781F0004158E72DE96F
:1022A000F04D81EA030404F0004B21F00045144690
:1022B0004FF0000A23F0004150EA050220D054EA12
:1022C00001021DD0C5F30A570246C5F31303C1F33B
:1022D0001300C1F30A5640F4801543F48013A7EBB2
:1022E0000608101BD64608F2FD3873EB050002D332
:1022F00008F1010801E092185B41B8F1000F03DA20
:1023000000200146BDE8F08D00204FF48011064604
:1023100084460EE0171B73EB050705D3121B63EB16
:10232000050306434CEA010C49084FEA30009218B5
:102330005B4150EA0107EDD152EA030012D082EA74
:10234000040083EA0501084305D0101BAB4106D207
:102350000122002306E000224FF0004302E06FF06C
:10236000010253101AEB06004CEB085110EB0A0067
:1023700041EB0B01BDE8F04DFFF78DBEC1F30A52F2
:10238000C1F3130140F2FF3341F480119A4202DAA3
:1023900000200146704740F233439A42A2F2334292
:1023A00002DC5242FFF767BE00F02AB830B5041EC7
:1023B00071F1000404DB4FF00044404264EB010182
:1023C000141E73F1000405DB1C464FF0004352421B
:1023D00063EB0403994208BF904230BD064C074DA1
:1023E00006E0E06840F0010394E8070098471034E5
:1023F000AC42F6D3FDF780FE182E0000382E000008
:10240000202A04DB203A00FA02F1002070479140B4
:10241000C2F1200320FA03F3194390407047202AA9
:1024200006DBCB17203A41FA02F043EAE07306E0FC
:1024300041FA02F3D040C2F120029140084319460C
:1024400070470000014A024900F0D8B8950A000020
:102450002800002037B514460846064B6A46214638
:1024600000F0DEF804466946002000F070FC2046CB
:102470003EBD00004F2D000002E008C8121F08C139
:10248000002AFAD170477047002001E001C1121FF5
:10249000002AFBD1704700002DE9FF5FDDE9022033
:1024A000010DDDF838B0024318D044F61050A1F207
:1024B000FF3141430D140F98012820D0A5EB0B00EC
:1024C000401C5FEA000A4FF00004474EDFF81C9101
:1024D000A046504616D5CAF1000728E00F980124FF
:1024E00043A2012808D0002100980F9BC0E90021D9
:1024F000C0E90243BDE8FF9F6FEA0B01F4E7CBF1AF
:102500000000DEE7074612E0F80707D02246334610
:1025100040464946FFF7D0FC80468946224633466E
:1025200010461946FFF7C8FC04460E467F10002FE0
:10253000EAD1DDE90201BAF1000F42464B4602DA68
:10254000FFF7BAFC01E0FFF7AAFE04460E460022A0
:10255000284BFFF72BFF03D84FF0FF30014607E071
:102560000022254B20463146FFF7F2FDFFF706FF1C
:10257000102409E0002C0ADB0A220023FFF74AFDA1
:10258000019B30321A55641E50EA0102F2D1641CDC
:10259000019AC4F1110314440F9A012A03D00122B5
:1025A00008430DD10AE0084304D000204FF0110B7E
:1025B0000F9080E7A3EB0B056D1E0DE05B4504DD7E
:1025C0004FF0000205F1010504E003DA4FF00002CC
:1025D000A5F10105002AECD000980F99C0E902315D
:1025E000C0E9004586E70000000024400000F03FFD
:1025F000300000000000F0430000E03F2DE9F04112
:1026000016460F460446002503E03946B047641CD1
:102610006D1C20780028F8D12846BDE8F081000024
:102620002DE9FF4F95B09B468946064600250FE2EF
:10263000252877D100242746F84A0121059400E097
:10264000044316F8013F203B01FA03F01042F7D192
:1026500030782A2811D06FF02F033078A0F13002A3
:10266000092A16D8059A44F0020402EB820203EB11
:1026700042021044761C0590EFE759F8042B0592AE
:10268000002A03DA504244F40054059044F0020456
:10269000761C30782E2816D116F8010F44F0040469
:1026A0002A280DD06FF02F023078A0F13003092BCB
:1026B00009D807EB870302EB4303C718761CF3E73F
:1026C00059F8047B761C30786C280FD006DC4C2837
:1026D00017D068280DD06A2814D104E0742810D0CF
:1026E0007A280FD10DE044F400140AE044F4801479
:1026F00001E044F440147278824202D104F580145F
:10270000761C761C307866280BD013DC582877D0DE
:1027100009DC002875D04528F6D04628F4D0472893
:102720001AD19DE118E0632835D0642879D0652856
:1027300012D195E1702873D008DC6728F1D06928A0
:102740006FD06E280DD06F2806D1B5E073282CD03D
:10275000752875D0782874D05A46179990476D1C03
:1027600075E1C4F30250022809D003280DD0D9F82E
:10277000001004280DD00D6009F1040967E1D9F8B3
:102780000010EA17C1E90052F6E7D9F800100D80F1
:10279000F2E70D70F0E719F8041B8DF80010002027
:1027A0008DF80100EA46012003E059F804AB4FF030
:1027B000FF3061074FF0000102D40DE008F1010184
:1027C0008846B9420FDA8045F8DB1AF8081000296C
:1027D000F4D108E008F1010188468142FADB1AF8D9
:1027E00008100029F6D105985B46A0EB08072146A2
:1027F0003846179A00F094FA284400EB080507E0E1
:102800004DE029E10DE01AF8010B5A46179990475F
:10281000B8F10108F7D25B4621463846179A13E112
:1028200042E00A220092C4F302524FF0000A022A48
:1028300008D059F804CB032A4FEAEC710AD00DE016
:1028400029E02AE009F1070121F00702F2E802C1BC
:10285000914609E00FFA8CFC4FEAEC71042A03D18F
:102860004FFA8CFC4FEAEC71002907DA0A46002186
:10287000DCF1000C61EB02012D2202E0220504D5FF
:102880002B228DF80420012203E0E20701D0202250
:10289000F7E7904659E00A2102E010220DE01021EE
:1028A0004FF0000A00910BE010224FF0000A44F0B4
:1028B00004040827009203E008224FF0000A009267
:1028C000C4F30252022A05D059F804CB0021032A8E
:1028D00008D009E009F1070121F00702F2E802C17E
:1028E000914605E01FFA8CFC042A01D10CF0FF0C84
:1028F0004FF00008220728D5702806D0009B83F0EF
:10290000100353EA0A0305D00EE040228DF804209C
:10291000012208E05CEA010206D030228DF8042092
:102920008DF8050002229046009B83F0080353EACD
:102930000A030AD15CEA010201D1620705D53022FF
:102940008DF804204FF001087F1E582804D034A0D1
:1029500003900EA802900DE036A0F9E753466046BA
:10296000009AFFF757FB84460398825C0298401E4A
:10297000029002705CEA0100F0D1029806A9081AE0
:1029800000F1200A600702D524F4803400E001271A
:10299000574502DDA7EB0A0000E0002000EB0A012A
:1029A000009005984144401A0590E00306D45B4628
:1029B0002146179A059800F0B3F90544002706E070
:1029C00001A85A46C05D179990476D1C7F1C47456A
:1029D000F6DBE0030CD55B462146179A059800F01C
:1029E0009FF9054404E030205A46179990476D1C22
:1029F0000099481E00900029F5DC08E00298029931
:102A00005A460078491C0291179990476D1CBAF1FB
:102A10000001AAF1010AF1DC65E1000009280100CA
:102A20003031323334353637383961626364656644
:102A30000000000030313233343536373839414206
:102A4000434445460000000000F058F90544761C58
:102A5000307800287FF4ECAD19B02846BDE8F08F3F
:102A6000620700D4062709F1070222F0070CFCE8F0
:102A70000223E14603F000485FEA080C02D00FF29F
:102A8000702C0DE05FEA045C02D50FF2682C07E0C1
:102A90005FEAC47C02D00FF2602C01E0AFF2700C50
:102AA0004FF0FF3823F00043CDF850C065280CD01C
:102AB00006DC452809D046281DD047283DD13DE0F9
:102AC000662818D067287ED138E00021112F01DB5D
:102AD000112000E0781CCDE9000106A90EA8FFF73F
:102AE000DBFCDDE90F010E9A03910021009207F152
:102AF000010A04914DE04FF000400097CDE901102C
:102B000006A90EA8FFF7C8FCDDE90F0203920E9B91
:102B100011990022DDF80CA00093049211B9791CE0
:102B200000EB010AB7EB0A0004D4C0F1FF3007F153
:102B3000010A0490AAEB0700019044E0012F00DA9B
:102B400001270021112F01DD112000E03846CDE9D9
:102B5000000106A90EA8FFF79FFCDDE90F010E9A00
:102B60000391002104910092BA4621070CD40399E5
:102B7000514500DA8A46BAF1010F05DD009AAAF143
:102B80000101515C302908D0B84202DA10F1040F7B
:102B900006DA0121CDE9011015E0AAF10101E9E70A
:102BA000002805DC049901440491AAEB000102E02D
:102BB000411C514500DD8A460499401A401C019091
:102BC0004FF000400290200704D40198504501DBEB
:102BD000CDF8048000208DF84F0002980DF14F07CA
:102BE000B0F1004F25D02B200E9002984FF0020834
:102BF00000280CDA404202902D200E9007E00A21B6
:102C00000298FFF7F1F93031029007F8011DB8F191
:102C10000001A8F10108F2DC02980028EFD1791E2A
:102C20000E980870307800F0200040F0450007F85A
:102C3000020D12A8C01B00F107081498007800B11B
:102C4000012000EB0A01019801EBE0710598414475
:102C5000401A401E0590E00306D45B462146179AB1
:102C6000059800F05DF805441498007818B15A46AC
:102C7000179990476D1CE00324D55B462146179AAF
:102C8000059800F04DF805441CE00498002807DB87
:102C9000DDE90301884203DD0098405C179901E0FB
:102CA000179930205A469047049805F10105401CB9
:102CB00004900198401E019004D12E205A46179985
:102CC00090476D1CBAF10001AAF1010ADDDC05E0B4
:102CD00017F8010B5A46179990476D1CB8F100017F
:102CE000A8F10108F4DC5B462146179A0598ABE68B
:102CF0002D0000002B000000200000002DE9F04115
:102D0000044600251E461746880404D405E03946CB
:102D10002020B0476D1C641EF9D52846BDE8F0811F
:102D20002DE9F041044600251E469046C80301D512
:102D3000302700E02027880404D505E041463846C6
:102D4000B0476D1C641EF9D52846BDE8F0810A68BD
:102D5000531C0B601070704714000000000000331B
:102D6000007662218001C8200E000000FD000B37B4
:102D70001607400C000C00001000C336101024F0A1
:102D80002A002F195E465F78000000000000000056
:102D900000000000000000001400000000000033EC
:102DA00000766221B82BEE0B70000300FDC00B37DC
:102DB0001607400C000C00001000C336101024F061
:102DC0002A002F195E465F78000000000000000016
:102DD00000000000000000001400000000000033AC
:102DE000007662210A00644101000200FD000B37F9
:102DF0001607400C000C00001000C336101024F021
:102E00002A002F195E465F780000000000000000D5
:102E10000000000000000000382E0000000000202C
:102E20004800000078240000802E000048000020A8
:102E3000B8310000882400000000000000010000FC
:102E40000000000000000000000000000000000082
:102E50000000000000000000000000000000000072
:102E600000000000000000000000000000960000CC
:102E70000101000000000000000000000000000050
:102E8000FFFFFFFFFFFFFFFFFFFFFFFFFFFFFFFF52
:102E9000FFFFFFFFFFFFFFFFFFFFFFFFFFFFFFFF42
:102EA000FFFFFFFFFFFFFFFFFFFFFFFFFFFFFFFF32
:102EB000FFFFFFFFFFFFFFFFFFFFFFFFFFFFFFFF22
:020000021000EC
:10FFF000FFFFFFFFFFFFFFFFFFFFFFFFFFFFCC0043
:04000003000000F108
:00000001FF
